:100000000C9463000C948B000C948B000C948B006C
:100010000C948B000C948B000C948B000C948B0034
:100020000C948B000C948B000C948B000C948B0024
:100030000C948B000C948B000C948B000C948B0014
:100040000C944B030C948B000C9425040C948B00A3
:100050000C948B000C948B000C948B000C948B00F4
:100060000C948B000C948B000000000024002700EF
:100070002A0000000000250028002B0000000000DE
:1000800023002600290004040404040404040202DA
:100090000202020203030303030301020408102007
:1000A0004080010204081020010204081020000012
:1000B0000007000201000003040600000000000029
:1000C000000068026E0511241FBECFEFD4E0DEBF32
:1000D000CDBF11E0A0E0B1E0E6EAF0E102C005909A
:1000E0000D92A433B107D9F712E0A4E3B1E001C047
:1000F0001D92A133B107E1F710E0C6ECD0E004C0D7
:100100002297FE010E944D08C23CD107C9F70E9408
:1001100044030C9451080C940000CF93DF93EC013E
:10012000EC8DFD8D9081888D809589238083E8A159
:10013000F9A190818E8D809589238083ECA1FDA10A
:1001400090818E8D809589238083E8A1F9A180819B
:100150009E8D892B8083E8A1F9A190818E8D809559
:1001600089238083EC8DFD8D8081988D892B808300
:10017000EAA1FBA180816E8D90E0262F30E08223E2
:100180009323892BB1F42C893D894E895F89888519
:100190009985AA85BB85281739074A075B0748F464
:1001A0002F5F3F4F4F4F5F4F2C8B3D8B4E8B5F8BA5
:1001B000DFCF2C893D894E895F8988859985AA85FD
:1001C000BB8582179307A407B50708F440C0ECA1CC
:1001D000FDA18081682B6083E8A1F9A180819E8DBB
:1001E000892B8083E8A1F9A190818E8D8095892348
:1001F0008083ECA1FDA190818E8D809589238083E1
:10020000EC8DFD8D9081888D809589238083EAA176
:10021000FBA1208130E08E8D90E028233923232B11
:10022000E1F02C893D894E895F8988859985AA8569
:10023000BB85281739074A075B0778F42F5F3F4FC4
:100240004F4F5F4F2C8B3D8B4E8B5F8BE0CF2EEF54
:100250003FEFC901DF91CF9108952C893D894E89E7
:100260005F8988859985AA85BB85281739074A073C
:100270005B0768F721E030E0ECCFEF92FF920F933D
:100280001F93CF93DF93EC01062F1C8A1D8A1E8AD1
:100290001F8A662329F420E030E040E050E080C06F
:1002A0008881998197FF05C02FEF3FEF4FEF5FEFF8
:1002B00077C010E00BC0CE010E948D0097FF05C0F3
:1002C0002EEF3FEF4FEF5FEF6BC01F5F101798F3FC
:1002D0000E949303288939894A895B89621B730BC1
:1002E000840B950B2C853D854E855F85261737073A
:1002F00048075907C0F52C893D894E895F896A8175
:100300007B818C819D81261737074807590721F487
:10031000EE24FF24870106C079018A01E61AF70A54
:10032000080B190B0E94D7062DEC3CEC4CEC5DE35E
:100330000E9465070E94A606882777FD8095982F62
:10034000E616F7060807190770F48FEF9FEFAFEF77
:10035000BFE08A839B83AC83BD830E949303688B39
:10036000798B8A8B9B8B2C893D894E895F898A8109
:100370009B81AC81BD81281739074A075B0720F4B0
:100380002A833B834C835D832C893D894E895F8919
:100390008A819B81AC81BD81281B390B4A0B5B0B89
:1003A000B901CA01DF91CF911F910F91FF90EF909A
:1003B0000895CF93DF93EC0181E090E099838883E7
:1003C00086E391E09F838E8380EE95E7A9E0B0E01D
:1003D00088879987AA87BB8780E29EE4A0E0B0E087
:1003E0008C879D87AE87BF87862F90E0FC01E656FD
:1003F000FF4FE491E88F8A579F4FFC016491698F0A
:10040000E62FF0E0EE0FFF1FEE58FF4F859194911D
:100410009D8F8C8F842F90E0FC01E656FF4FE49176
:10042000EE8F8A579F4FFC0144914F8FE42FF0E0ED
:10043000EE0FFF1FEE58FF4F859194919DA38CA363
:10044000662321F48FEF9FEF99838883898DE82FAE
:10045000F0E0EE0FFF1FE859FF4F859194919B8FBD
:100460008A8F8F8D882321F48FEF9FEF9983888364
:100470008F8D90E0880F991FFC01E859FF4F25915F
:10048000349139A328A3FC01EE58FF4F25913491F4
:100490003DA32CA3FC01E458FF4F859194919BA3AD
:1004A0008AA3EA8DFB8D8081988D892B80838FEFC5
:1004B0009FEFAFEFBFE08A839B83AC83BD830E9435
:1004C0009303688B798B8A8B9B8BDF91CF910895F7
:1004D00084E391E06AE04BE00E94D9018AE591E073
:1004E0006AE049E00E94D90108958EE192E060E05F
:1004F00071E00E94DF050895AF92BF92CF92DF9224
:10050000EF92FF920F931F930E94930384E391E075
:100510006AE00E943D017B018C018AE591E06AE07E
:100520000E943D015B016C0160918001709181012D
:100530008091820190918301A80197010E941C087B
:100540009B01AC01223031054105510594F08091A9
:100550008C0190918D01019690938D0180938C0177
:1005600080918A0190918B01019690938B018093E9
:100570008A0188EE93E090938901809388018EE14F
:1005800092E0BA01A9010E947F06609180017091FA
:1005900081018091820190918301A80197010E94BD
:1005A0001C08AB01BC018EE192E00E947F0662E371
:1005B00070E080E090E00E94A103E0928001F09260
:1005C00081010093820110938301A0928401B09273
:1005D0008501C0928601D09287011F910F91FF90F3
:1005E000EF90DF90CF90BF90AF90089580918C01F5
:1005F00090918D0103975CF010928D0110928C0107
:1006000010928F0110928E010E94750202C00E940A
:100610007C02809190018130E9F480918E0190916B
:100620008F01409774F08EE192E060E271E00E94E9
:10063000DF0510928D0110928C0110928F011092A3
:100640008E0180918E0190918F01019690938F0180
:1006500080938E0108958DE061E00E9405048EE193
:1006600092E040E855E260E070E00E94620410927F
:1006700089011092880110928D0110928C011092C4
:100680008F0110928E0108950E94CB030E942B03CC
:100690000E94F602FDCF1F920F920FB60F92112407
:1006A0002F933F938F939F93AF93BF938091950127
:1006B00090919601A0919701B09198013091990184
:1006C0000196A11DB11D232F2D5F2D3720F02D5731
:1006D0000196A11DB11D20939901809395019093DE
:1006E0009601A0939701B093980180919101909108
:1006F0009201A0919301B09194010196A11DB11DA9
:100700008093910190939201A0939301B0939401EF
:10071000BF91AF919F918F913F912F910F900FBEFD
:100720000F901F9018958FB7F894209195013091F4
:10073000960140919701509198018FBFB901CA016C
:100740000895EF92FF920F931F937B018C018FB757
:10075000F8944091950150919601609197017091A4
:1007600098018FBF2FB7F8948091950190919601D1
:10077000A0919701B09198012FBF841B950BA60BF8
:10078000B70BE816F9060A071B0760F71F910F91D0
:10079000FF90EF900895789484B5826084BD84B50D
:1007A000816084BD85B5826085BD85B5816085BD6C
:1007B000EEE6F0E0808181608083E1E8F0E0808116
:1007C00082608083808181608083E0E8F0E08081C6
:1007D00081608083E1EBF0E0808184608083E0EBE6
:1007E000F0E0808181608083EAE7F0E080818460CE
:1007F000808380818260808380818160808380812A
:10080000806880831092C1000895282F30E0C901CC
:1008100086569F4FFC0194912A573F4FF9018491CE
:10082000882391F0E82FF0E0EE0FFF1FE859FF4F0B
:10083000A591B491662329F48C91909589238C938A
:1008400008958C91892B8C9308951F920F920FB667
:100850000F9211242F933F934F935F936F937F9346
:100860008F939F93AF93BF93EF93FF934091C600F5
:10087000E0911A02F0911B02CF01019660E870E04E
:100880000E94E7079C0180911C0290911D0228178D
:10089000390739F0E656FE4F408330931B02209310
:1008A0001A02FF91EF91BF91AF919F918F917F912C
:1008B0006F915F914F913F912F910F900FBE0F90CD
:1008C0001F9018955F926F927F928F929F92AF9236
:1008D000BF92CF92DF92EF92FF920F931F93CF932D
:1008E000DF93EC013A014B01413482E458078FE079
:1008F000680780E078070CF07FC060E874E88EE15C
:1009000090E0A40193010E941C0821503040404017
:100910005040CA01B90122E030E040E050E00E94BE
:100920001C0859016A01A601950120953095409552
:10093000509594E0220F331F441F551F9A95D1F70D
:1009400060E074E284EF90E00E941C08CA01B901E3
:100950002FEF30E040E050E00E94C807A40193016F
:100960000E941C08C90181509F4F181619061CF4DB
:10097000522E5A9403C055245394521A60E079E0E1
:100980008DE390E0A40193010E941C0821503040A7
:1009900040405040CA01B90122E030E040E050E060
:1009A0000E941C08209530954095509583E0220FB9
:1009B000331F441F551F8A95D1F760E074E284EF1E
:1009C00090E00E941C08CA01B9012FEF30E040E01E
:1009D00050E00E94C807A40193010E941C08C901AD
:1009E00081509F4F181619061CF4822F815002C0A7
:1009F00081E0821B851500F5E885F98581E090E0AE
:100A00000A8802C0880F991F0A94E2F7808360E089
:100A100079E08DE390E0A40193010E941C0821502D
:100A2000304040405040CA01B90122E030E040E08F
:100A300050E00E941C0804C0E885F98510829501E9
:100A4000EC81FD813083EE81FF812083EA85FB8587
:100A5000208141E050E0CA010E8402C0880F991F36
:100A60000A94E2F7282B2083EA85FB852081CA01BE
:100A70000F8402C0880F991F0A94E2F7282B208365
:100A8000EA85FB858081088802C0440F551F0A94BF
:100A9000E2F7842B8083DF91CF911F910F91FF901C
:100AA000EF90DF90CF90BF90AF909F908F907F900E
:100AB0006F905F900895FC01A085B18521898C918C
:100AC00090E0022E02C0959587950A94E2F780FF88
:100AD000F6CF0484F585E02D608308958DE291E0E2
:100AE00090931F0280931E028AE991E09093210265
:100AF0008093200285EC90E0909323028093220261
:100B000084EC90E0909325028093240280EC90E0A6
:100B1000909327028093260281EC90E09093290223
:100B20008093280286EC90E090932B0280932A0217
:100B300084E080932C0283E080932D0287E08093F1
:100B40002E0285E080932F0281E080933002089589
:100B50000F931F93CF93DF938C01EB0109C0219674
:100B6000D801ED91FC910190F081E02DC80109952B
:100B700068816623A1F7DF91CF911F910F910895AE
:100B8000EF92FF920F931F93CF93DF938C017B0122
:100B9000EA010CC0D7016D917D01D801ED91FC9166
:100BA0000190F081E02DC80109952197209791F7D8
:100BB000DF91CF911F910F91FF90EF900895DC018D
:100BC000ED91FC910280F381E02D099508952F921B
:100BD0003F924F925F926F927F928F929F92AF92CD
:100BE000BF92CF92DF92EF92FF920F931F93DF930A
:100BF000CF93CDB7DEB7A0970FB6F894DEBF0FBE88
:100C0000CDBF1C016A017B014115510561057105CC
:100C100049F4DC01ED91FC910190F081E02D60E35D
:100C2000099554C0882499245401422E55246624E1
:100C3000772401E010E00C0F1D1F080D191DC701DE
:100C4000B601A30192010E94FA07F801608308949B
:100C5000811C911CA11CB11CC701B601A30192010A
:100C60000E94FA07C901DA016C017D01C114D104A7
:100C7000E104F104F1F681E0E82EF12CEC0EFD1E0A
:100C8000E80CF91C3E010894611C711CD501C401DB
:100C90000197A109B1096C01C818D90814C0F6015F
:100CA000EE0DFF1D60816A3010F4605D01C0695C6B
:100CB000D101ED91FC910190F081E02DC1010995E8
:100CC0000894E108F1086E147F0449F7A0960FB666
:100CD000F894DEBF0FBECDBFCF91DF911F910F9172
:100CE000FF90EF90DF90CF90BF90AF909F908F904C
:100CF0007F906F905F904F903F902F900895EF926C
:100D0000FF920F931F93CF93DF93EC017A018B0136
:100D100077FF0FC0E881F9810190F081E02D6DE24D
:100D2000099510950095F094E094E11CF11C011DCB
:100D3000111DCE01B801A7012AE00E94E705DF914D
:100D4000CF911F910F91FF90EF90089504D0689478
:100D5000B111B5C0089598D088F09F5790F0B92F81
:100D60009927B751A0F0D1F0660F771F881F991F00
:100D70001AF0BA95C9F712C0B13081F09FD0B1E036
:100D800008959CC0672F782F8827B85F39F0B93F46
:100D9000CCF3869577956795B395D9F73EF4909502
:100DA0008095709561957F4F8F4F9F4F0895E89480
:100DB00009C097FB3EF490958095709561957F4FA3
:100DC0008F4F9F4F9923A9F0F92F96E9BB27939551
:100DD000F695879577956795B795F111F8CFFAF461
:100DE000BB0F11F460FF1BC06F5F7F4F8F4F9F4F92
:100DF00016C0882311F096E911C0772321F09EE8F0
:100E0000872F762F05C0662371F096E8862F70E055
:100E100060E02AF09A95660F771F881FDAF7880F2F
:100E20009695879597F9089597F99F6780E870E000
:100E300060E008959FEF80EC089500240A94161650
:100E4000170618060906089500240A9412161306B8
:100E5000140605060895092E0394000C11F4882346
:100E600052F0BB0F40F4BF2B11F460FF04C06F5F62
:100E70007F4F8F4F9F4F089557FD9058440F551F38
:100E800059F05F3F71F04795880F97FB991F61F00C
:100E90009F3F79F087950895121613061406551F83
:100EA000F2CF4695F1DF08C0161617061806991FEF
:100EB000F1CF86957105610508940895E894BB27E4
:100EC00066277727CB0197F908950BD0C4CFB5DFFC
:100ED00028F0BADF18F0952309F0A6CFABCF112484
:100EE000EECFCADFA0F3959FD1F3950F50E0551FC9
:100EF000629FF001729FBB27F00DB11D639FAA276F
:100F0000F00DB11DAA1F649F6627B00DA11D661FBD
:100F1000829F2227B00DA11D621F739FB00DA11DDE
:100F2000621F839FA00D611D221F749F3327A00D98
:100F3000611D231F849F600D211D822F762F6A2F34
:100F400011249F5750408AF0E1F088234AF0EE0FB9
:100F5000FF1FBB1F661F771F881F91505040A9F7C6
:100F60009E3F510570F060CFAACF5F3FECF3983EF3
:100F7000DCF3869577956795B795F795E7959F5F2D
:100F8000C1F7FE2B880F911D9695879597F90895C7
:100F9000629FD001739FF001829FE00DF11D649F5D
:100FA000E00DF11D929FF00D839FF00D749FF00DE9
:100FB000659FF00D9927729FB00DE11DF91F639F8A
:100FC000B00DE11DF91FBD01CF011124089597FB5C
:100FD000092E07260AD077FD04D049D006D000207C
:100FE0001AF4709561957F4F0895F6F79095819565
:100FF0009F4F0895A1E21A2EAA1BBB1BFD010DC035
:10100000AA1FBB1FEE1FFF1FA217B307E407F507B8
:1010100020F0A21BB30BE40BF50B661F771F881F94
:10102000991F1A9469F760957095809590959B012A
:10103000AC01BD01CF01089597FB092E05260ED006
:1010400057FD04D0D7DF0AD0001C38F450954095E6
:10105000309521953F4F4F4F5F4F0895F6F790958C
:101060008095709561957F4F8F4F9F4F0895AA1B74
:10107000BB1B51E107C0AA1FBB1FA617B70710F083
:10108000A61BB70B881F991F5A95A9F780959095B5
:10109000BC01CD010895EE0FFF1F0590F491E02DE6
:0610A0000994F894FFCF53
:1010A600686F6F726179262A2A2A2A2A2A2A2A2A08
:1010B6002A2A2A2A2A2A2A2A2A2A2A2A2A2A2A00B4
:1010C60072657365742D2D2D00000000005B05A868
:0410D60005C005004C
:00000001FF
