:100000000C9462000C948A000C948A000C948A0070
:100010000C948A000C948A000C948A000C948A0038
:100020000C948A000C948A000C948A000C948A0028
:100030000C948A000C948A000C948A000C948A0018
:100040000C941C020C948A000C948A000C948A0074
:100050000C948A000C948A000C948A000C948A00F8
:100060000C948A000C948A000000000024002700F1
:100070002A0000000000250028002B0000000000DE
:1000800023002600290004040404040404040202DA
:100090000202020203030303030301020408102007
:1000A0004080010204081020010204081020000012
:1000B0000007000201000003040600000000000029
:1000C0000000F20111241FBECFEFD4E0DEBFCDBF90
:1000D00011E0A0E0B1E0E8EAF6E002C005900D9280
:1000E000A030B107D9F711E0A0E0B1E001C01D9246
:1000F000A136B107E1F710E0C4ECD0E004C02297CC
:10010000FE010E944E03C23CD107C9F70E941702AC
:100110000C9452030C9400008F929F92AF92BF9266
:10012000CF92DF92EF92FF920F931F93DF93CF93C3
:1001300000D0CDB7DEB77C0149832A83660F771FD5
:1001400086E590E0E80EF91EF701008111818AEA48
:100150009FEFE80EF91E000F111F80E090E005C030
:10016000F701E80FF91F1082019680179107C4F379
:100170008981F701E60FF71F81838A818083F70168
:10018000EC5AFF4F808160E00E94BE020150104097
:100190006701C00ED11E0F5F1F4F90E5892E912C75
:1001A0008E0C9F1C82E5A82EB12CAE0CBF1C0EC07D
:1001B00001501040F4018081F501608141E0F601B9
:1001C00020810E940B030894C108D1081016110663
:1001D0007CF384E590E0E80EF91EF701808161E090
:1001E0000E94BE020F900F90CF91DF911F910F914F
:1001F000FF90EF90DF90CF90BF90AF909F908F9047
:100200000895DF92EF92FF920F931F93CF93DF93A6
:10021000EC017B0177FD22C0CA5ADF4F88819981AA
:10022000C655D04068177907CCF48B010E5F1F4F7D
:1002300053E0000F111F5A95E1F70C0F1D1FDD242D
:10024000D394F80111928F01CE01B7014D2D20E01A
:100250000E948C00D394F9E0DF1699F7DF91CF91DB
:100260001F910F91FF90EF90DF900895FC01242FD4
:1002700077FD0DC0EA5AFF4F80819181E655F0402D
:100280006817790724F4CF014AE00E948C00089592
:10029000FC01242F77FD0DC0EA5AFF4F8081918128
:1002A000E655F0406817790724F4CF014BE00E942F
:1002B0008C000895FC0177FD16C0EA5AFF4F80813B
:1002C0009181E655F040681779076CF4442331F0CA
:1002D000CF014CE020E00E948C000895CF014CE05B
:1002E00021E00E948C000895CF92DF92EF92FF925E
:1002F0000F931F93CF93DF93EC016B01C05BDF4F34
:10030000699379934993599339832883C455D0408D
:10031000C8010197089710F008E010E0CA5ADF4FB3
:1003200019830883C655D0408E01005B1F4FF8012A
:10033000808161E00E949E02FE01EE5AFF4F8081A3
:1003400061E00E949E0274E5E72EF12CEC0EFD1E8A
:10035000F701808161E00E949E02F701808161E0E7
:100360000E94BE02F801D182C082FE0180E090E0CE
:10037000108A0196319680349105D1F700E010E0A3
:1003800066E5C62ED12CCC0EDD1E1DC0CE01B801F7
:100390004FE020E00E948C00CE01B80147E050E021
:1003A0000E944801CE01B80149E020E00E948C0083
:1003B000CE01B8010E940101CE01B80141E00E94C6
:1003C0005A010F5F1F4FF6018081918108171907AD
:1003D000ECF2DF91CF911F910F91FF90EF90DF90A2
:1003E000CF9008950F931F9380E091E063E070E059
:1003F00045E050E024E030E001E010E00E947401AC
:100400001F910F9108950F931F9300E011E0C80111
:1004100060E070E040E00E945A01C80160E070E0D6
:1004200048E050E00E9436011F910F9108950E940C
:1004300064020E940302FFCF1F920F920FB60F9229
:1004400011242F933F938F939F93AF93BF938091EA
:100450005C0190915D01A0915E01B0915F013091CE
:1004600060010196A11DB11D232F2D5F2D3720F0B6
:100470002D570196A11DB11D2093600180935C0151
:1004800090935D01A0935E01B0935F01809158014C
:1004900090915901A0915A01B0915B010196A11D63
:1004A000B11D8093580190935901A0935A01B093C4
:1004B0005B01BF91AF919F918F913F912F910F90D1
:1004C0000FBE0F901F901895789484B5826084BDFC
:1004D00084B5816084BD85B5826085BD85B5816048
:1004E00085BDEEE6F0E0808181608083E1E8F0E0A8
:1004F000808182608083808181608083E0E8F0E099
:10050000808181608083E1EBF0E080818460808382
:10051000E0EBF0E0808181608083EAE7F0E08081B9
:100520008460808380818260808380818160808319
:100530008081806880831092C1000895282F30E068
:10054000C90186569F4FFC0194912A573F4FF901EC
:100550008491882391F0E82FF0E0EE0FFF1FE85917
:10056000FF4FA591B491662329F48C91909589232E
:100570008C9308958C91892B8C930895482F50E08B
:10058000CA0182559F4FFC012491CA0186569F4F94
:10059000FC0194914A575F4FFA0134913323D1F112
:1005A000222331F1233021F4809180008F7705C020
:1005B000243031F4809180008F7D8093800018C0BA
:1005C000213019F484B58F7704C0223021F484B52A
:1005D0008F7D84BD0DC0263021F48091B0008F77CF
:1005E00005C0273029F48091B0008F7D8093B00042
:1005F000E32FF0E0EE0FFF1FEE58FF4FA591B491EF
:10060000662329F48C91909589238C9308958C917D
:10061000892B8C930895BF92CF92DF92EF92FF9235
:100620000F931F93CF93DF93E82EF62EB42EC0E0E6
:10063000D0E0022F10E087E0C82ED12CBB2041F47F
:10064000B8010C2E02C0759567950A94E2F70AC0AE
:10065000B6016C1B7D0BC80102C0959587956A9504
:10066000E2F7BC0161708E2D0E94BE028F2D61E009
:100670000E94BE028F2D60E00E94BE022196C8300B
:10068000D105E1F6DF91CF911F910F91FF90EF908F
:10069000DF90CF90BF900895EE0FFF1F0590F4916B
:0806A000E02D0994F894FFCF4E
:00000001FF
