:100000000C9462000C948A000C948A000C948A0070
:100010000C948A000C948A000C948A000C948A0038
:100020000C948A000C948A000C948A000C948A0028
:100030000C948A000C948A000C948A000C948A0018
:100040000C94CA000C948A000C945A020C948A00F6
:100050000C948A000C948A000C948A000C948A00F8
:100060000C948A000C948A000000000024002700F1
:100070002A0000000000250028002B0000000000DE
:1000800023002600290004040404040404040202DA
:100090000202020203030303030301020408102007
:1000A0004080010204081020010204081020000012
:1000B0000007000201000003040600000000000029
:1000C0000000A30311241FBECFEFD4E0DEBFCDBFDD
:1000D00011E0A0E0B1E0EAE0FBE002C005900D9283
:1000E000A031B107D9F711E0A0E1B1E001C01D9244
:1000F000A23BB107E1F710E0C4ECD0E004C02297C6
:10010000FE010E947F05C23CD107C9F70E94C300CF
:100110000C9483050C9400000F931F9380910001B1
:100120000E947601BC01909311018093100180918F
:1001300002010E9494010FE911E060911001709199
:100140001101C8010E94EA04C8010E9414046BE472
:1001500070E080E090E00E9412011F910F910895DD
:100160008091000160E00E94ED018091020161E058
:100170000E94ED018FE991E040E855E260E070E017
:100180000E94970208950E943C010E94B0000E94C4
:100190008C00FDCF1F920F920FB60F9211242F9358
:1001A0003F938F939F93AF93BF938091160190914C
:1001B0001701A0911801B091190130911A0101960F
:1001C000A11DB11D232F2D5F2D3720F02D57019636
:1001D000A11DB11D20931A01809316019093170160
:1001E000A0931801B093190180911201909113010D
:1001F000A0911401B09115010196A11DB11D80932C
:10020000120190931301A0931401B0931501BF91B3
:10021000AF919F918F913F912F910F900FBE0F90B3
:100220001F901895EF92FF920F931F937B018C0103
:100230008FB7F89440911601509117016091180101
:10024000709119018FBF2FB7F8948091160190918A
:100250001701A0911801B09119012FBF841B950BB4
:10026000A60BB70BE816F9060A071B0760F71F91E4
:100270000F91FF90EF900895789484B5826084BDCB
:1002800084B5816084BD85B5826085BD85B581609A
:1002900085BDEEE6F0E0808181608083E1E8F0E0FA
:1002A000808182608083808181608083E0E8F0E0EB
:1002B000808181608083E1EBF0E0808184608083D5
:1002C000E0EBF0E0808181608083EAE7F0E080810C
:1002D000846080838081826080838081816080836C
:1002E0008081806880831092C10008958F70909102
:1002F00004019295990F990F907C982B90937C0014
:1003000080917A00806480937A0080917A0086FDE3
:10031000FCCF2091780040917900942F80E030E06C
:10032000282B392BC90108951F93CF93DF93182FE2
:10033000EB0161E00E94ED01E12FF0E0E255FF4F9B
:100340008491833051F48091800080688093800094
:10035000D0938900C09388003CC0843051F48091D0
:100360008000806280938000D0938B00C0938A00CD
:1003700030C0813039F4209729F184B5806884BD7C
:10038000C7BD27C0823039F42097E1F084B5806280
:1003900084BDC8BD1EC0863041F48091B000806825
:1003A0008093B000C093B30014C0873041F48091B3
:1003B000B00080628093B000C093B4000AC0C0381F
:1003C000D1051CF4812F60E002C0812F61E00E9402
:1003D0000D02DF91CF911F910895282F30E0C901C0
:1003E00086569F4FFC0194912A573F4FF901849103
:1003F000882391F0E82FF0E0EE0FFF1FE859FF4F40
:10040000A591B491662329F48C91909589238C93BE
:1004100008958C91892B8C930895482F50E0CA0140
:1004200082559F4FFC012491CA0186569F4FFC01C3
:1004300094914A575F4FFA0134913323D1F122232B
:1004400031F1233021F4809180008F7705C0243072
:1004500031F4809180008F7D8093800018C021301E
:1004600019F484B58F7704C0223021F484B58F7DD0
:1004700084BD0DC0263021F48091B0008F7705C077
:10048000273029F48091B0008F7D8093B000E32F56
:10049000F0E0EE0FFF1FEE58FF4FA591B4916623D9
:1004A00029F48C91909589238C9308958C91892BB4
:1004B0008C9308951F920F920FB60F9211242F93D1
:1004C0003F934F935F936F937F938F939F93AF93DC
:1004D000BF93EF93FF934091C600E0919B01F09191
:1004E0009C01CF01019660E870E00E9419059C0113
:1004F00080919D0190919E012817390739F0E55EA2
:10050000FE4F408330939C0120939B01FF91EF911C
:10051000BF91AF919F918F917F916F915F914F911B
:100520003F912F910F900FBE0F901F9018955F92E3
:100530006F927F928F929F92AF92BF92CF92DF92F3
:10054000EF92FF920F931F93CF93DF93EC013A0149
:100550004B01413482E458078FE0680780E0780758
:100560000CF07FC060E874E88EE190E0A401930194
:100570000E944E052150304040405040CA01B90110
:1005800022E030E040E050E00E944E0559016A014F
:10059000A6019501209530954095509594E0220F45
:1005A000331F441F551F9A95D1F760E074E284EF22
:1005B00090E00E944E05CA01B9012FEF30E040E003
:1005C00050E00E94FA04A40193010E944E05C90163
:1005D00081509F4F181619061CF4522E5A9403C0CE
:1005E00055245394521A60E079E08DE390E0A40121
:1005F00093010E944E052150304040405040CA01B6
:10060000B90122E030E040E050E00E944E05209524
:1006100030954095509583E0220F331F441F551F9E
:100620008A95D1F760E074E284EF90E00E944E0575
:10063000CA01B9012FEF30E040E050E00E94FA0417
:10064000A40193010E944E05C90181509F4F1816C5
:1006500019061CF4822F815002C081E0821B85158F
:1006600000F5E885F98581E090E00A8802C0880FEE
:10067000991F0A94E2F7808360E079E08DE390E0CF
:10068000A40193010E944E0521503040404050404B
:10069000CA01B90122E030E040E050E00E944E057E
:1006A00004C0E885F98510829501EC81FD813083D5
:1006B000EE81FF812083EA85FB85208141E050E0C7
:1006C000CA010E8402C0880F991F0A94E2F7282BF2
:1006D0002083EA85FB852081CA010F8402C0880F30
:1006E000991F0A94E2F7282B2083EA85FB858081F5
:1006F000088802C0440F551F0A94E2F7842B8083B8
:10070000DF91CF911F910F91FF90EF90DF90CF90ED
:10071000BF90AF909F908F907F906F905F90089563
:10072000FC01A085B18521898C9190E0022E02C048
:10073000959587950A94E2F780FFF6CF0484F585B6
:10074000E02D6083089589E091E09093A00180936B
:100750009F018BE191E09093A2018093A10185EC30
:1007600090E09093A4018093A30184EC90E0909397
:10077000A6018093A50180EC90E09093A80180935E
:10078000A70181EC90E09093AA018093A90186ECE7
:1007900090E09093AC018093AB0184E08093AD0135
:1007A00083E08093AE0187E08093AF0185E0809382
:1007B000B00181E08093B10108950F931F93CF930F
:1007C000DF938C01EB0109C02196D801ED91FC91DA
:1007D0000190F081E02DC801099568816623A1F799
:1007E000DF91CF911F910F910895EF92FF920F9398
:1007F0001F93CF93DF938C017B01EA010CC0D701DB
:100800006D917D01D801ED91FC910190F081E02D79
:10081000C80109952197209791F7DF91CF911F91FA
:100820000F91FF90EF9008950F931F938C01DC01BF
:10083000ED91FC910190F081E02D6DE00995D801DA
:10084000ED91FC910190F081E02DC8016AE00995DD
:100850001F910F9108952F923F924F925F926F9246
:100860007F928F929F92AF92BF92CF92DF92EF9240
:10087000FF920F931F93DF93CF93CDB7DEB7A0976F
:100880000FB6F894DEBF0FBECDBF1C016A017B011D
:10089000411551056105710549F4DC01ED91FC91AB
:1008A0000190F081E02D60E3099554C088249924DB
:1008B0005401422E55246624772401E010E00C0FE9
:1008C0001D1F080D191DC701B601A30192010E9449
:1008D0002C05F80160830894811C911CA11CB11C9B
:1008E000C701B601A30192010E942C05C901DA01DA
:1008F0006C017D01C114D104E104F104F1F681E041
:10090000E82EF12CEC0EFD1EE80CF91C3E010894BB
:10091000611C711CD501C4010197A109B1096C01C9
:10092000C818D90814C0F601EE0DFF1D60816A30A9
:1009300010F4605D01C0695CD101ED91FC91019002
:10094000F081E02DC10109950894E108F1086E14C9
:100950007F0449F7A0960FB6F894DEBF0FBECDBF57
:10096000CF91DF911F910F91FF90EF90DF90CF908B
:10097000BF90AF909F908F907F906F905F904F90BF
:100980003F902F900895EF92FF920F931F93CF9374
:10099000DF93EC017A018B0177FF0FC0E881F981C9
:1009A0000190F081E02D6DE2099510950095F0948D
:1009B000E094E11CF11C011D111DCE01B801A7013D
:1009C0002AE00E942B04DF91CF911F910F91FF909D
:1009D000EF9008950F931F938C01AB01662757FD8D
:1009E0006095762F0E94C304C8010E9414041F91D1
:1009F0000F910895629FD001739FF001829FE00DD7
:100A0000F11D649FE00DF11D929FF00D839FF00D8D
:100A1000749FF00D659FF00D9927729FB00DE11D39
:100A2000F91F639FB00DE11DF91FBD01CF01112416
:100A3000089597FB092E07260AD077FD04D049D0E8
:100A400006D000201AF4709561957F4F0895F6F74F
:100A5000909581959F4F0895A1E21A2EAA1BBB1B6A
:100A6000FD010DC0AA1FBB1FEE1FFF1FA217B3077A
:100A7000E407F50720F0A21BB30BE40BF50B661F90
:100A8000771F881F991F1A9469F760957095809554
:100A900090959B01AC01BD01CF01089597FB092EF4
:100AA00005260ED057FD04D0D7DF0AD0001C38F43D
:100AB00050954095309521953F4F4F4F5F4F08958A
:100AC000F6F790958095709561957F4F8F4F9F4F6A
:100AD0000895AA1BBB1B51E107C0AA1FBB1FA61785
:100AE000B70710F0A61BB70B881F991F5A95A9F7D7
:100AF00080959095BC01CD010895EE0FFF1F0590E4
:0A0B0000F491E02D0994F894FFCF62
:100B0A0003000C0001000000009003DD03F5030060
:00000001FF
