:100000000C9462000C948A000C948A000C948A0070
:100010000C948A000C948A000C948A000C948A0038
:100020000C948A000C948A000C948A000C948A0028
:100030000C948A000C948A000C948A000C948A0018
:100040000C9409060C948A000C948A000C948A0083
:100050000C948A000C948A000C948A000C948A00F8
:100060000C948A000C948A000000000024002700F1
:100070002A0000000000250028002B0000000000DE
:1000800023002600290004040404040404040202DA
:100090000202020203030303030301020408102007
:1000A0004080010204081020010204081020000012
:1000B0000007000201000003040600000000000029
:1000C0000000AF0211241FBECFEFD8E0DEBFCDBFCE
:1000D00011E0A0E0B1E0E6EDFEE002C005900D9277
:1000E000A430B107D9F711E0A4E0B1E001C01D923E
:1000F000AD3BB107E1F710E0C4ECD0E004C02297BB
:10010000FE010E946507C23CD107C9F70E940206A2
:100110000C9469070C9400008F929F92AF92BF924B
:10012000CF92DF92EF92FF920F931F93DF93CF93C3
:1001300000D0CDB7DEB77C0149832A83660F771FD5
:1001400086E590E0E80EF91EF701008111818AEA48
:100150009FEFE80EF91E000F111F80E090E005C030
:10016000F701E80FF91F1082019680179107C4F379
:100170008981F701E60FF71F81838A818083F70168
:10018000EC5AFF4F808160E00E94D506015010407C
:100190006701C00ED11E0F5F1F4F90E5892E912C75
:1001A0008E0C9F1C82E5A82EB12CAE0CBF1C0EC07D
:1001B00001501040F4018081F501608141E0F601B9
:1001C00020810E9422070894C108D1081016110648
:1001D0007CF384E590E0E80EF91EF701808161E090
:1001E0000E94D5060F900F90CF91DF911F910F9134
:1001F000FF90EF90DF90CF90BF90AF909F908F9047
:100200000895DC0177FD1CC0AA5ABF4F8D919C91C7
:100210001197A655B0406817790794F448305105F6
:1002200078F4FB0193E0EE0FFF1F9A95E1F7EA0FD8
:10023000FB1FE40FF51F208B4F5FCD010E948C0048
:100240000895EF92FF920F93CF93DF93DC017B0130
:10025000BA01F7FC3DC0AA5ABF4F8D919C911197EE
:10026000A655B040E816F9069CF54830510580F5D2
:1002700037FD2EC0283031055CF5E70133E0CC0FA7
:10028000DD1F3A95E1F780E890E002C095958795EB
:100290002A95E2F7982F9E01240F351F002331F095
:1002A000FD01E20FF31F8089982B06C0FD01E20FCC
:1002B000F31F909580899823908B462F4F5FCA0F2C
:1002C000DB1FC60FD71FCD01B70128890E948C0004
:1002D000DF91CF910F91FF90EF9008956F927F92F1
:1002E0008F929F92AF92BF92CF92DF92EF92FF9246
:1002F0000F931F93CF93DF937C016B014A0177FD2E
:100300002EC046E550E0E40EF51EF7018081918194
:100310004AEA5FEFE40EF51E6817790704F558E026
:1003200085169104E0F4C0E0D0E0A22EBB2447E0A3
:10033000642E712C83010C1B1D0BC50102C0959509
:1003400087950A95E2F78C010170C701B601AE01ED
:1003500094010E9421012196C830D10559F7DF91FF
:10036000CF911F910F91FF90EF90DF90CF90BF90B2
:10037000AF909F908F907F906F900895DF92EF9253
:10038000FF920F931F93CF93DF93EC017B0177FDD7
:1003900022C0CA5ADF4F88819981C655D04068175C
:1003A0007907CCF48B010E5F1F4F53E0000F111F34
:1003B0005A95E1F70C0F1D1FDD24D394F80111921B
:1003C0008F01CE01B7014D2D20E00E948C00D39407
:1003D000F9E0DF1699F7DF91CF911F910F91FF9010
:1003E000EF90DF900895FC01242F77FD0DC0EA5AAD
:1003F000FF4F80819181E655F0406817790724F41A
:10040000CF014AE00E948C000895FC01242F77FD63
:100410000DC0EA5AFF4F80819181E655F040681780
:10042000790724F4CF014BE00E948C000895FC0171
:1004300077FD16C0EA5AFF4F80819181E655F04062
:10044000681779076CF4442331F0CF014CE020E0C9
:100450000E948C000895CF014CE021E00E948C00A6
:100460000895CF92DF92EF92FF920F931F93CF9355
:10047000DF93EC016B01C05BDF4F69937993499384
:10048000599339832883C455D040C80101970897F0
:1004900010F008E010E0CA5ADF4F19830883C655F0
:1004A000D0408E01005B1F4FF801808161E00E9407
:1004B000B506FE01EE5AFF4F808161E00E94B5064D
:1004C00074E5E72EF12CEC0EFD1EF701808161E052
:1004D0000E94B506F701808161E00E94D506F8010F
:1004E000D182C082FE0180E090E0108A01963196B0
:1004F00080349105D1F700E010E066E5C62ED12CDE
:10050000CC0EDD1E1DC0CE01B8014FE020E00E94E0
:100510008C00CE01B80147E050E00E940502CE01F8
:10052000B80149E020E00E948C00CE01B8010E9491
:10053000BE01CE01B80141E00E9417020F5F1F4FBC
:10054000F6018081918108171907ECF2DF91CF91B4
:100550001F910F91FF90EF90DF90CF9008950F9330
:100560001F9384E091E069E070E043E050E024E014
:1005700030E001E010E00E9431028CE591E065E09E
:1005800070E046E050E027E030E00E9431021F9129
:100590000F910895CF92DF92EF92FF920F93CF9336
:1005A000DF93EE24FF2470C060910001709101017F
:1005B00080910201909103010E94510684E091E034
:1005C00060E070E0A7019E0101E00E9421018CE53E
:1005D00091E060E070E0A7019E010E94210160911E
:1005E00000017091010180910201909103010E942C
:1005F0005106CC24DD2439C084E091E060E070E055
:10060000A7019E0100E00E9421018CE591E060E0DD
:1006100070E0A7019E010E9421016091000170918C
:10062000010180910201909103010E94510684E032
:1006300091E060E070E0A7019E0101E00E942101CD
:100640008CE591E060E070E0A7019E010E9421012D
:10065000609100017091010180910201909103016C
:100660000E9451060894C11CD11CCC16DD0624F250
:100670002196C830D10509F097CF0894E11CF11CF0
:1006800088E0E816F10419F0C0E0D0E08DCFDF91EA
:10069000CF910F91FF90EF90DF90CF9008950F933F
:1006A0001F93CF93DF93C0E0D0E060910001709181
:1006B000010180910201909103010E94510684E0A2
:1006C00091E060E070E0AE0120EA0E946E0160916E
:1006D00000017091010180910201909103010E943B
:1006E000510684E091E060E070E0AE0120E00E94FD
:1006F0006E0100E010E026C06091000170910101E0
:1007000080910201909103010E94510684E091E0E2
:1007100060E070E0AE0120EA0E946E01609100018D
:100720007091010180910201909103010E94510694
:1007300084E091E060E070E0AE0120E00E946E0194
:100740000F5F1F4F0C171D07BCF22196C830D10553
:1007500009F0ABCFDF91CF911F910F9108950F93C7
:100760001F93CF93DF93C0E0D0E0609100017091C0
:10077000010180910201909103010E94510684E0E1
:1007800091E060E070E0AE0120EA0E9401018CE59A
:1007900091E060E070E0AE0120EA0E94010160910A
:1007A00000017091010180910201909103010E946A
:1007B000510684E091E060E070E0AE0120E00E942C
:1007C00001018CE591E060E070E0AE0120E00E9464
:1007D000010100E010E036C060910001709101015C
:1007E00080910201909103010E94510684E091E002
:1007F00060E070E0AE0120EA0E9401018CE591E02A
:1008000060E070E0AE0120EA0E9401016091000109
:100810007091010180910201909103010E945106A3
:1008200084E091E060E070E0AE0120E00E94010110
:100830008CE591E060E070E0AE0120E00E940101F3
:100840000F5F1F4F0C171D073CF22196C830D105D2
:1008500009F08BCFDF91CF911F910F9108950F93E6
:100860001F9304E011E0C80160E070E040E050E058
:100870002EE70E940101C80160E070E041E050E015
:1008800028E80E940101C80160E070E042E050E009
:1008900028E80E940101C80160E070E043E050E0F8
:1008A00028E80E940101C80160E070E044E050E0E7
:1008B0002EE70E9401016091000170910101809179
:1008C0000201909103010E945106C80160E070E0AE
:1008D00040E050E02EE30E940101C80160E070E0BA
:1008E00041E050E020E10E940101C80160E070E0B9
:1008F00042E050E020E20E940101C80160E070E0A7
:1009000043E050E020E20E940101C80160E070E095
:1009100044E050E020E10E940101609100017091EB
:10092000010180910201909103010E945106C801CA
:1009300060E070E040E050E02CE10E940101C8015D
:1009400060E070E041E050E022E20E940101C80155
:1009500060E070E042E050E022E20E940101C80144
:1009600060E070E043E050E022E10E940101C80134
:1009700060E070E044E050E02EEF0E9401016091E1
:1009800000017091010180910201909103010E9488
:100990005106C80160E070E040E050E02CE30E94A6
:1009A0000101C80160E070E041E050E022E00E94F7
:1009B0000101C80160E070E042E050E022E00E94E6
:1009C0000101C80160E070E043E050E024E00E94D3
:1009D0000101C80160E070E044E050E02EE30E94B5
:1009E00001016091000170910101809102019091DB
:1009F00003010E945106C80160E070E040E050E051
:100A000020E00E940101C80160E070E041E050E098
:100A100022E20E940101C80160E070E042E050E083
:100A20002EEB0E940101C80160E070E043E050E05D
:100A300022E00E940101C80160E070E044E050E063
:100A400020E00E94010160910001709101018091FC
:100A50000201909103010E945106C80160E070E01C
:100A600040E050E02EE30E940101C80160E070E028
:100A700041E050E020E10E940101C80160E070E027
:100A800042E050E020E20E940101C80160E070E015
:100A900043E050E020E20E940101C80160E070E004
:100AA00044E050E02EE10E9401016091000170914C
:100AB000010180910201909103010E945106C80139
:100AC00060E070E040E050E02CE10E940101C801CC
:100AD00060E070E041E050E022E20E940101C801C4
:100AE00060E070E042E050E022E20E940101C801B3
:100AF00060E070E043E050E022E20E940101C801A2
:100B000060E070E044E050E02CE10E94010160915F
:100B100000017091010180910201909103010E94F6
:100B20005106C80160E070E040E050E020E00E9423
:100B30000101C80160E070E041E050E020E00E9467
:100B40000101C80160E070E042E050E020E00E9456
:100B50000101C80160E070E043E050E020E00E9445
:100B60000101C80160E070E044E050E020E00E9434
:100B70000101609100017091010180910201909149
:100B800003010E9451061F910F9108950E942F04A6
:100B90000E94AF030E944F030E94CA020895EF9281
:100BA000FF920F931F9384E0E82E81E0F82EC70197
:100BB00060E070E040E00E9417020CE511E0C8011F
:100BC00060E070E040E00E941702C70160E070E062
:100BD00048E050E00E94F301C80160E070E048E0A6
:100BE00050E00E94F301C70160E070E00E94BE0186
:100BF000C80160E070E00E94BE011F910F91FF905C
:100C0000EF9008950E947B060E94CF050E94C605C2
:100C1000FDCF1F920F920FB60F9211242F933F9387
:100C20008F939F93AF93BF938091B8019091B90137
:100C3000A091BA01B091BB013091BC010196A11DF8
:100C4000B11D232F2D5F2D3720F02D570196A11DAB
:100C5000B11D2093BC018093B8019093B901A0937A
:100C6000BA01B093BB018091B4019091B501A091FC
:100C7000B601B091B7010196A11DB11D8093B401D9
:100C80009093B501A093B601B093B701BF91AF9116
:100C90009F918F913F912F910F900FBE0F901F90BA
:100CA0001895EF92FF920F931F937B018C018FB7E2
:100CB000F8944091B8015091B9016091BA017091D6
:100CC000BB018FBF2FB7F8948091B8019091B90103
:100CD000A091BA01B091BB012FBF841B950BA60B4D
:100CE000B70BE816F9060A071B0760F71F910F916B
:100CF000FF90EF900895789484B5826084BD84B5A8
:100D0000816084BD85B5826085BD85B5816085BD06
:100D1000EEE6F0E0808181608083E1E8F0E08081B0
:100D200082608083808181608083E0E8F0E0808160
:100D300081608083E1EBF0E0808184608083E0EB80
:100D4000F0E0808181608083EAE7F0E08081846068
:100D500080838081826080838081816080838081C4
:100D6000806880831092C1000895282F30E0C90167
:100D700086569F4FFC0194912A573F4FF901849169
:100D8000882391F0E82FF0E0EE0FFF1FE859FF4FA6
:100D9000A591B491662329F48C91909589238C9325
:100DA00008958C91892B8C930895482F50E0CA01A7
:100DB00082559F4FFC012491CA0186569F4FFC012A
:100DC00094914A575F4FFA0134913323D1F1222392
:100DD00031F1233021F4809180008F7705C02430D9
:100DE00031F4809180008F7D8093800018C0213085
:100DF00019F484B58F7704C0223021F484B58F7D37
:100E000084BD0DC0263021F48091B0008F7705C0DD
:100E1000273029F48091B0008F7D8093B000E32FBC
:100E2000F0E0EE0FFF1FEE58FF4FA591B49166233F
:100E300029F48C91909589238C9308958C91892B1A
:100E40008C930895BF92CF92DF92EF92FF920F930F
:100E50001F93CF93DF93E82EF62EB42EC0E0D0E0A0
:100E6000022F10E087E0C82ED12CBB2041F4B8013E
:100E70000C2E02C0759567950A94E2F70AC0B60178
:100E80006C1B7D0BC80102C0959587956A95E2F7AA
:100E9000BC0161708E2D0E94D5068F2D61E00E94ED
:100EA000D5068F2D60E00E94D5062196C830D10569
:100EB000E1F6DF91CF911F910F91FF90EF90DF90BE
:100EC000CF90BF900895EE0FFF1F0590F491E02D95
:060ED0000994F894FFCF25
:040ED60064000000B4
:00000001FF
