:100000000C9462000C948A000C948A000C948A0070
:100010000C948A000C948A000C948A000C948A0038
:100020000C948A000C948A000C948A000C948A0028
:100030000C948A000C948A000C948A000C948A0018
:100040000C9496010C948A000C94AF020C948A00D4
:100050000C948A000C948A000C948A000C948A00F8
:100060000C948A000C948A000000000024002700F1
:100070002A0000000000250028002B0000000000DE
:1000800023002600290004040404040404040202DA
:100090000202020203030303030301020408102007
:1000A0004080010204081020010204081020000012
:1000B0000007000201000003040600000000000029
:1000C0000000F80311241FBECFEFD4E0DEBFCDBF88
:1000D00011E0A0E0B1E0E8E0FFE002C005900D9281
:1000E000A832B107D9F711E0A8E2B1E001C01D9232
:1000F000A63DB107E1F710E0C4ECD0E004C02297C0
:10010000FE010E947E07C23CD107C9F70E948F0101
:100110000C9482070C94000083EC91E060E071E0A5
:100120000E948804089510922D0110922C011092C3
:100130002B0110922A0110922901109228012EC041
:10014000289AC9019C010196199BFCCFC9012093F3
:100150002A0190932B0161E070E080E090E00E9422
:10016000DE01289880912C0190912D019C0101962F
:100170001999FCCFC90120932C0190932D0161E0C6
:1001800070E080E090E00E94DE0180912801909173
:1001900029010196909329018093280180912801DB
:1001A0009091290120912A0130912B01049744F26A
:1001B0002D52314040F080911B0161E00E946202AB
:1001C0000E948C00089580911B0160E00E946202F1
:1001D00008956F927F928F929F92AF92BF92CF922B
:1001E000DF92EF92FF920F931F930E949300E09093
:1001F0001701F09018010091190110911A016090F7
:100200002A0170902B0188249924C401B3010E9413
:1002100008069B01AC01C801B7010E9496065B016C
:100220006C0160E070E080E89FE3A80197010E9404
:10023000720520912E0130912F0140913001509193
:1002400031010E9496069B01AC01C601B5010E94D6
:100250007305DC019B01AC01209332013093330123
:100260004093340150933501CB0180932E0190933C
:100270002F01A0933001B093310103EC11E0C801CC
:10028000B401A3012AE030E00E94520583E1E82E88
:1002900081E0F82EC801B7010E94690440912C0149
:1002A00050912D0160E070E0C8012AE030E00E942A
:1002B0005205C801B7010E94690460913201709132
:1002C000330180913401909135010E94D705AB0133
:1002D000BC01C8012AE030E00E9467051F910F9120
:1002E000FF90EF90DF90CF90BF90AF909F908F9056
:1002F0007F906F90089583EC91E040E855E260E0D4
:1003000070E00E94EC0280911B0161E00E944202B9
:1003100085E084B98AE060E00E94620208950E944C
:1003200008020E947B010E94E900FDCF1F920F92FC
:100330000FB60F9211242F933F938F939F93AF93F8
:10034000BF9380913A0190913B01A0913C01B09103
:100350003D0130913E010196A11DB11D232F2D5F5E
:100360002D3720F02D570196A11DB11D20933E0180
:1003700080933A0190933B01A0933C01B0933D01DF
:100380008091360190913701A0913801B0913901E7
:100390000196A11DB11D8093360190933701A09362
:1003A0003801B0933901BF91AF919F918F913F91E7
:1003B0002F910F900FBE0F901F901895EF92FF9204
:1003C0000F931F937B018C018FB7F89440913A01F2
:1003D00050913B0160913C0170913D018FBF2FB75F
:1003E000F89480913A0190913B01A0913C01B09129
:1003F0003D012FBF841B950BA60BB70BE816F90622
:100400000A071B0760F71F910F91FF90EF90089567
:10041000789484B5826084BD84B5816084BD85B5DF
:10042000826085BD85B5816085BDEEE6F0E08081A6
:1004300081608083E1E8F0E0808182608083808158
:1004400081608083E0E8F0E0808181608083E1EB7F
:10045000F0E0808184608083E0EBF0E08081816067
:100460008083EAE7F0E0808184608083808182601D
:100470008083808181608083808180688083109206
:10048000C1000895282F30E0C90186569F4FFC0116
:1004900094912A573F4FF9018491882391F0E82FD6
:1004A000F0E0EE0FFF1FE859FF4FA591B4916623CE
:1004B00029F48C91909589238C9308958C91892BA4
:1004C0008C930895482F50E0CA0182559F4FFC013C
:1004D0002491CA0186569F4FFC0194914A575F4F61
:1004E000FA0134913323D1F1222331F1233021F465
:1004F000809180008F7705C0243031F48091800096
:100500008F7D8093800018C0213019F484B58F77D7
:1005100004C0223021F484B58F7D84BD0DC0263007
:1005200021F48091B0008F7705C0273029F48091A5
:10053000B0008F7D8093B000E32FF0E0EE0FFF1F3F
:10054000EE58FF4FA591B491662329F48C919095B4
:1005500089238C9308958C91892B8C9308951F92F5
:100560000F920FB60F9211242F933F934F935F93E7
:100570006F937F938F939F93AF93BF93EF93FF936B
:100580004091C600E091BF01F091C001CF010196FA
:1005900060E870E00E9418079C018091C101909171
:1005A000C2012817390739F0E15CFE4F40833093D0
:1005B000C0012093BF01FF91EF91BF91AF919F9137
:1005C0008F917F916F915F914F913F912F910F90FC
:1005D0000FBE0F901F9018955F926F927F928F922F
:1005E0009F92AF92BF92CF92DF92EF92FF920F93C2
:1005F0001F93CF93DF93EC013A014B01413482E426
:1006000058078FE0680780E078070CF07FC060E84B
:1006100074E88EE190E0A40193010E944D072150FF
:10062000304040405040CA01B90122E030E040E093
:1006300050E00E944D0759016A01A60195012095DD
:1006400030954095509594E0220F331F441F551F5D
:100650009A95D1F760E074E284EF90E00E944D0734
:10066000CA01B9012FEF30E040E050E00E94F906E6
:10067000A40193010E944D07C90181509F4F181694
:1006800019061CF4522E5A9403C055245394521A3E
:1006900060E079E08DE390E0A40193010E944D07B2
:1006A0002150304040405040CA01B90122E030E0C2
:1006B00040E050E00E944D072095309540955095C0
:1006C00083E0220F331F441F551F8A95D1F760E046
:1006D00074E284EF90E00E944D07CA01B9012FEF48
:1006E00030E040E050E00E94F906A40193010E942E
:1006F0004D07C90181509F4F181619061CF4822F0F
:10070000815002C081E0821B851500F5E885F985DE
:1007100081E090E00A8802C0880F991F0A94E2F7EE
:10072000808360E079E08DE390E0A40193010E9472
:100730004D072150304040405040CA01B90122E0ED
:1007400030E040E050E00E944D0704C0E885F985A4
:1007500010829501EC81FD813083EE81FF81208341
:10076000EA85FB85208141E050E0CA010E8402C089
:10077000880F991F0A94E2F7282B2083EA85FB85CE
:100780002081CA010F8402C0880F991F0A94E2F7E2
:10079000282B2083EA85FB858081088802C0440FCE
:1007A000551F0A94E2F7842B8083DF91CF911F912C
:1007B0000F91FF90EF90DF90CF90BF90AF909F9000
:1007C0008F907F906F905F900895FC01A085B18518
:1007D00021898C9190E0022E02C0959587950A940C
:1007E000E2F780FFF6CF0484F585E02D608308955D
:1007F00081E291E09093C4018093C3018FE391E083
:100800009093C6018093C50185EC90E09093C80158
:100810008093C70184EC90E09093CA018093C90152
:1008200080EC90E09093CC018093CB0181EC90E040
:100830009093CE018093CD0186EC90E09093D0010F
:100840008093CF0184E08093D10183E08093D20133
:1008500087E08093D30185E08093D40181E0809389
:10086000D50108950F931F93CF93DF938C01EB0174
:1008700009C02196D801ED91FC910190F081E02D05
:10088000C801099568816623A1F7DF91CF911F9177
:100890000F910895EF92FF920F931F93CF93DF93E1
:1008A0008C017B01EA010CC0D7016D917D01D8015B
:1008B000ED91FC910190F081E02DC80109952197FF
:1008C000209791F7DF91CF911F910F91FF90EF90BB
:1008D0000895DC01ED91FC910280F381E02D0995F2
:1008E00008950F931F938C01DC01ED91FC91019011
:1008F000F081E02D6DE00995D801ED91FC9101901A
:10090000F081E02DC8016AE009951F910F910895CB
:100910000F931F938C010E946904C8010E94710407
:100920001F910F9108952F923F924F925F926F9275
:100930007F928F929F92AF92BF92CF92DF92EF926F
:10094000FF920F931F93DF93CF93CDB7DEB7A0979E
:100950000FB6F894DEBF0FBECDBF1C016A017B014C
:10096000411551056105710549F4DC01ED91FC91DA
:100970000190F081E02D60E3099554C0882499240A
:100980005401422E55246624772401E010E00C0F18
:100990001D1F080D191DC701B601A30192010E9478
:1009A0002B07F80160830894811C911CA11CB11CC9
:1009B000C701B601A30192010E942B07C901DA0108
:1009C0006C017D01C114D104E104F104F1F681E070
:1009D000E82EF12CEC0EFD1EE80CF91C3E010894EB
:1009E000611C711CD501C4010197A109B1096C01F9
:1009F000C818D90814C0F601EE0DFF1D60816A30D9
:100A000010F4605D01C0695CD101ED91FC91019031
:100A1000F081E02DC10109950894E108F1086E14F8
:100A20007F0449F7A0960FB6F894DEBF0FBECDBF86
:100A3000CF91DF911F910F91FF90EF90DF90CF90BA
:100A4000BF90AF909F908F907F906F905F904F90EE
:100A50003F902F900895EF92FF920F931F93CF93A3
:100A6000DF93EC017A018B0177FF0FC0E881F981F8
:100A70000190F081E02D6DE2099510950095F094BC
:100A8000E094E11CF11C011D111DCE01B801A7016C
:100A90002AE00E949304DF91CF911F910F91FF9064
:100AA000EF900895DC012115310541F4ED91FC91A1
:100AB0000190F081E02D642F099508952A303105C9
:100AC00019F40E942B0508950E94930408950F9332
:100AD0001F938C010E945205C8010E9471041F914E
:100AE0000F9108955058BB27AA270ED0E5C0D6D045
:100AF00030F0DBD020F031F49F3F11F41EF4CBC076
:100B00000EF4E095E7FBC1C0E92FE7D080F3BA17F8
:100B1000620773078407950718F071F49EF5FFC00C
:100B20000EF4E0950B2EBA2FA02D0B01B901900108
:100B30000C01CA01A0011124FF27591B99F0593F4C
:100B400050F4503E68F11A16F040A22F232F342F94
:100B50004427585FF3CF469537952795A795F040E2
:100B60005395C9F77EF41F16BA0B620B730B840BF7
:100B7000BAF09150A1F0FF0FBB1F661F771F881FAF
:100B8000C2F70EC0BA0F621F731F841F48F4879507
:100B900077956795B795F7959E3F08F0B3CF9395F6
:100BA000880F08F09927EE0F97958795089504D040
:100BB0006894B111B5C0089598D088F09F5790F00F
:100BC000B92F9927B751A0F0D1F0660F771F881F72
:100BD000991F1AF0BA95C9F712C0B13081F09FD0B1
:100BE000B1E008959CC0672F782F8827B85F39F04F
:100BF000B93FCCF3869577956795B395D9F73EF4D1
:100C000090958095709561957F4F8F4F9F4F089578
:100C1000E89409C097FB3EF4909580957095619596
:100C20007F4F8F4F9F4F9923A9F0F92F96E9BB274C
:100C30009395F695879577956795B795F111F8CFC8
:100C4000FAF4BB0F11F460FF1BC06F5F7F4F8F4F33
:100C50009F4F16C0882311F096E911C0772321F029
:100C60009EE8872F762F05C0662371F096E8862FC1
:100C700070E060E02AF09A95660F771F881FDAF718
:100C8000880F9695879597F9089597F99F6780E85B
:100C900070E060E008959FEF80EC089500240A94CE
:100CA0001616170618060906089500240A94121647
:100CB0001306140605060895092E0394000C11F47A
:100CC000882352F0BB0F40F4BF2B11F460FF04C027
:100CD0006F5F7F4F8F4F9F4F089557FD9058440F80
:100CE000551F59F05F3F71F04795880F97FB991F8B
:100CF00061F09F3F79F08795089512161306140648
:100D0000551FF2CF4695F1DF08C0161617061806D4
:100D1000991FF1CF86957105610508940895E894AF
:100D2000BB2766277727CB0197F908950BD0C4CF4F
:100D3000B5DF28F0BADF18F0952309F0A6CFABCFC6
:100D40001124EECFCADFA0F3959FD1F3950F50E0A9
:100D5000551F629FF001729FBB27F00DB11D639F6D
:100D6000AA27F00DB11DAA1F649F6627B00DA11D13
:100D7000661F829F2227B00DA11D621F739FB00DB9
:100D8000A11D621F839FA00D611D221F749F332729
:100D9000A00D611D231F849F600D211D822F762FC2
:100DA0006A2F11249F5750408AF0E1F088234AF0BF
:100DB000EE0FFF1FBB1F661F771F881F915050400B
:100DC000A9F79E3F510570F060CFAACF5F3FECF3CB
:100DD000983EDCF3869577956795B795F795E795F7
:100DE0009F5FC1F7FE2B880F911D9695879597F908
:100DF0000895629FD001739FF001829FE00DF11D65
:100E0000649FE00DF11D929FF00D839FF00D749F84
:100E1000F00D659FF00D9927729FB00DE11DF91F30
:100E2000639FB00DE11DF91FBD01CF01112408958D
:100E300097FB092E07260AD077FD04D049D006D0AB
:100E400000201AF4709561957F4F0895F6F79095FC
:100E500081959F4F0895A1E21A2EAA1BBB1BFD018D
:100E60000DC0AA1FBB1FEE1FFF1FA217B307E40789
:100E7000F50720F0A21BB30BE40BF50B661F771FE1
:100E8000881F991F1A9469F76095709580959095C1
:100E90009B01AC01BD01CF01089597FB092E0526EA
:100EA0000ED057FD04D0D7DF0AD0001C38F450957F
:100EB0004095309521953F4F4F4F5F4F0895F6F77E
:100EC00090958095709561957F4F8F4F9F4F0895B6
:100ED000AA1BBB1B51E107C0AA1FBB1FA617B70760
:100EE00010F0A61BB70B881F991F5A95A9F780957C
:100EF0009095BC01CD010895EE0FFF1F0590F49170
:080F0000E02D0994F894FFCFE5
:100F08005370656E63657220596F7520646964203B
:100F180069740020202000295C8F3D070000000034
:080F280000E50332044A040055
:00000001FF
