:100000000C9463000C9452100C947F100C948B0091
:100010000C948B000C948B000C948B000C948B0034
:100020000C948B000C948B000C948B000C948B0024
:100030000C948B000C948B000C948B000C948B0014
:100040000C94AC100C948B000C9422120C948B002A
:100050000C948B000C948B000C948B000C948B00F4
:100060000C94FF050C948B00000000002400270076
:100070002A0000000000250028002B0000000000DE
:1000800023002600290004040404040404040202DA
:100090000202020203030303030301020408102007
:1000A0004080010204081020010204081020000012
:1000B0000007000201000003040600000000000029
:1000C0000000F6046B1311241FBECFEFD8E0DEBF93
:1000D000CDBF12E0A0E0B1E0E0E9F9E202C0059096
:1000E0000D92AA3CB107D9F713E0AAECB2E001C027
:1000F0001D92A13DB107E1F710E0C6ECD0E004C0CD
:100100002297FE010E948B14C23CD107C9F70E94BE
:1001100028100C94C6140C940000EF92FF920F93D9
:10012000DF93CF93CDB7DEB760970FB6F894DEBFFD
:100130000FBECDBFA82F002309F461C07E01089433
:10014000E11CF11C88E0F70111928A95E9F72983F7
:100150003A834B835C836D837E83AF83988780E291
:10016000801BE82FFF27E7FDF09549815A816B81BD
:100170007C81181684F019861A861B861C868827AF
:1001800099278E1B9F0B04C0440F551F661F771FB6
:100190008A95D2F728C0202F332727FD3095DB0121
:1001A000CA01022E04C0880F991FAA1FBB1F0A9400
:1001B000D2F789879A87AB87BC8704C07695679505
:1001C00057954795EA95D2F78D819E81AF81B88585
:1001D00004C0880F991FAA1FBB1F2A95D2F7482B6E
:1001E000592B6A2B7B2B4D875E876F87788B2985F0
:1001F0003A854B855C856D857E85AF8598898A2F8C
:1002000060960FB6F894DEBF0FBECDBFCF91DF91E1
:100210000F91FF90EF9008950F931F93CF93DF936B
:10022000689F8001699F100D789F100D1124C801EF
:100230000E942801EC01009729F060E070E0A8011D
:100240000E942A02CE01DF91CF911F910F91089554
:10025000CF93DF93BC018230910510F462E070E02F
:10026000A091CF03B091D003ED01E0E0F0E040E0D9
:1002700050E021C0888199818617970769F48A81A7
:100280009B81309719F09383828304C09093D003AD
:100290008093CF03FE0134C06817790738F4411505
:1002A000510519F08417950708F4AC01FE018A8105
:1002B0009B819C01E9012097E9F641155105A9F1BF
:1002C000CA01861B970B049708F4BA01E0E0F0E03E
:1002D0002AC08D919C91119784179507F9F46417A2
:1002E000750781F412968D919C911397309719F0B0
:1002F0009383828304C09093D0038093CF03FD0146
:1003000032964CC0CA01861B970BFD01E80FF91FFE
:100310006193719302978D939C9340C0FD018281FC
:1003200093819C01D9011097A1F68091CD03909102
:10033000CE03892B41F480914D0290914E0290930F
:10034000CE038093CD0340914F025091500241154E
:10035000510541F44DB75EB780914B0290914C022C
:10036000481B590B2091CD033091CE03CA01821B4B
:10037000930B8617970780F0AB014E5F5F4F841792
:10038000950750F0420F531F5093CE034093CD0377
:10039000F9016193719302C0E0E0F0E0CF01DF91D9
:1003A000CF910895CF93DF93009709F450C0EC01EB
:1003B00022971B821A82A091CF03B091D00310978D
:1003C00009F140E050E0AC17BD0708F1BB83AA83F8
:1003D000FE0121913191E20FF31FAE17BF0779F4AF
:1003E0008D919C911197280F391F2E5F3F4F3983B4
:1003F000288312968D919C9113979B838A83411534
:10040000510571F4D093D003C093CF0320C012964E
:100410008D919C911397AD01009711F0DC01D3CF22
:10042000FA01D383C28321913191E20FF31FCE17DA
:10043000DF0769F488819981280F391F2E5F3F4FAC
:10044000FA01318320838A819B8193838283DF91A8
:10045000CF910895DC0101C06D9341505040E0F709
:100460000895FB01DC0101900D920020E1F7089551
:10047000AEE0B0E0EEE3F2E00C949D140D891E892D
:1004800086E08C831A8309838FEF9FE79E838D8399
:100490009E01275E3F4FCE0101966F89788DA9019D
:1004A0000E945C022F813885020F131FF801108211
:1004B0002E96E4E00C94B914ABE0B0E0E2E6F2E092
:1004C0000C948F143C012B015A01FC0117821682F7
:1004D000838181FD03C06FEF7FEFC6C19AE0892E53
:1004E0001E010894211C311CF3012381F20123FD1C
:1004F000859123FF81912F01882309F4B2C18532B0
:1005000039F423FD859123FF81912F01853229F450
:1005100090E0B3010E944F04E7CF982FFF24EE2410
:100520009924FFE1FF15D0F09B3269F09C3228F44A
:10053000903259F0933291F40EC09D3249F09033CD
:1005400069F441E024C052E0F52A84E0F82A28C08A
:1005500098E0F92A25C0E0E1FE2A22C0F7FC29C074
:10056000892F80538A3070F4F6FE05C0989C902C39
:100570001124980E15C0E89CE02C1124E80EF0E23E
:10058000FF2A0EC09E3229F4F6FC6BC140E4F42A27
:1005900007C09C3619F450E8F52A02C0983649F491
:1005A000F20123FD959123FF91912F01992309F0E9
:1005B000B8CF892F8554833018F08052833038F4B7
:1005C00044E050E0A40EB51E5FE359830FC093369C
:1005D00031F0933779F0933509F056C020C0F5011A
:1005E0008081898342E050E0A40EB51E610101E0E4
:1005F00010E012C0F501C080D180F6FC03C06FEF9F
:100600007FEF02C0692D70E042E050E0A40EB51EFD
:10061000C6010E9444048C015FE7F52214C0F50175
:10062000C080D180F6FC03C06FEF7FEF02C0692D60
:1006300070E042E050E0A40EB51EC6010E943904ED
:100640008C0150E8F52AF3FE07C01AC080E290E062
:10065000B3010E944F04EA948E2D90E00817190709
:10066000A8F30EC0F601F7FC8591F7FE81916F01AA
:1006700090E0B3010E944F04E110EA940150104051
:100680000115110579F7EAC0943611F0993669F52C
:10069000F7FE08C0F501208131814281538184E059
:1006A00090E00AC0F501808191819C01442737FDCB
:1006B0004095542F82E090E0A80EB91E9FE6F922E3
:1006C00057FF09C050954095309521953F4F4F4FAA
:1006D0005F4FE0E8FE2ACA01B901A1012AE030E03B
:1006E0000E947B04D82ED21840C0953729F41F2DC4
:1006F0001F7E2AE030E01DC01F2D197F9F3661F05C
:10070000903720F4983509F0ACC00FC0903739F01D
:10071000983709F0A6C004C028E030E00AC0106194
:1007200014FD146020E130E004C014FD166020E1E7
:1007300032E017FF08C0F5016081718182819381E9
:1007400044E050E008C0F50180819181BC0180E067
:1007500090E042E050E0A40EB51EA1010E947B048F
:10076000D82ED2188FE7F82EF122F6FE0BC05EEFDE
:10077000F522D91438F4F4FE07C0F2FC05C08FEE60
:10078000F82202C01D2D01C0192DF4FE0DC0FE017E
:10079000ED0DF11D8081803319F499EEF92208C026
:1007A0001F5FF2FE05C003C08F2D867809F01F5F22
:1007B0000F2DF3FC14C0F0FE0FC01E1510F09D2C81
:1007C0000BC09D2C9E0C911A1E2D06C080E290E05D
:1007D000B3010E944F041F5F1E15C0F304C01E1515
:1007E00010F4E11A01C0EE2404FF0FC080E390E092
:1007F000B3010E944F0402FF1DC001FD03C088E742
:1008000090E00EC088E590E00BC0802F867891F0D4
:1008100001FF02C08BE201C080E2F7FC8DE290E0B4
:10082000B3010E944F0406C080E390E0B3010E9430
:100830004F049A94D914C0F3DA94F101ED0DF11D2F
:10084000808190E0B3010E944F04DD20A9F706C02B
:1008500080E290E0B3010E944F04EA94EE20C1F7D9
:1008600043CEF30166817781CB012B96E2E10C94B4
:10087000AB14FC010590615070400110D8F78095D1
:1008800090958E0F9F1F0895FC016150704001905C
:100890000110D8F7809590958E0F9F1F08950F93A4
:1008A0001F93CF93DF938C01EB018B8181FF1BC0E2
:1008B00082FF0DC02E813F818C819D8128173907D1
:1008C00064F4E881F9810193F983E88306C0E8853F
:1008D000F985802F0995892B31F48E819F810196AE
:1008E0009F838E8302C00FEF1FEFC801DF91CF916E
:1008F0001F910F910895FA01AA27283051F1203154
:1009000081F1E8946F936E7F6E5F7F4F8F4F9F4FA3
:10091000AF4FB1E03ED0B4E03CD0670F781F891FE5
:100920009A1FA11D680F791F8A1F911DA11D6A0FB3
:10093000711D811D911DA11D20D009F468943F9166
:100940002AE0269F11243019305D3193DEF6CF0165
:100950000895462F4770405D4193B3E00FD0C9F72B
:10096000F6CF462F4F70405D4A3318F0495D31FD98
:100970004052419302D0A9F7EACFB4E0A6959795EB
:10098000879577956795BA95C9F7009761057105C1
:1009900008959B01AC010A2E06945795479537950B
:1009A0002795BA95C9F7620F731F841F951FA01D65
:1009B000089581E08093D3026093CE021092D10219
:1009C0001092D20208959091CC028091CD02981796
:1009D00010F080E00895E091CA02F091CB02E90F97
:1009E000F11D80819F5F9093CC0208950895DF935D
:1009F000CF930F92CDB7DEB769838091D30288235E
:100A0000A9F08091D2028032B0F48091D102E091BD
:100A1000CF02F091D002E80FF11D60838091D102E6
:100A20008F5F8093D1028093D20205C0CE010196E0
:100A300061E00E94E2050F90CF91DF9108950E943E
:100A4000F70408956091CF027091D0028091CE0298
:100A50004091D20221E00E949D051092D102109295
:100A6000D2021092D3020895862F6091CA0270912B
:100A7000CB02413208F040E20E9465051092CC02A0
:100A80008093CD0208950E943405089580E290E09D
:100A900061E070E00E940C018093CA029093CB0247
:100AA0001092CC021092CD0280E290E061E070E002
:100AB0000E940C018093CF029093D0021092D10239
:100AC0001092D2020E9481070895982F413210F0AF
:100AD00040E031C08091D5028823E1F781E0809326
:100AE000D5028FEF8093E6021092DD0241504093D1
:100AF000DE024F5F990F91609093D60285EE80934E
:100B0000BC008091D5028130E1F38091DD02841731
:100B100010F44091DD02A091DB02B091DC0220E0F4
:100B200030E007C0FB01E20FF31F8D9180832F5F40
:100B30003F4F2417B8F3842F08951F93582F122F77
:100B4000413210F081E03CC08091D5028823E1F76A
:100B500082E08093D5028FEF8093E6021092DD024F
:100B60004093DE02A091DB02B091DC02FB0102C0E7
:100B700081918D938E2F861B8417D0F3852F90E063
:100B8000880F991F8093D60285EE8093BC001123B5
:100B900021F08091D5028230E1F38091E6028F3F0F
:100BA00011F480E00DC08091E602803211F482E001
:100BB00007C08091E602803311F084E001C083E039
:100BC0001F910895482F613210F081E008958091BF
:100BD000D502843011F082E008956093E202A09182
:100BE000DF02B091E002842F9C01F90102C08191E3
:100BF0008D938E2F841B8617D0F380E008951F926B
:100C00000F920FB60F9211242F933F934F935F9340
:100C10006F937F938F939F93AF93BF93EF93FF93C4
:100C20008091B90090E0887F90708036910509F43A
:100C3000E2C081369105CCF58832910509F47BC07C
:100C400089329105B4F48031910509F46FC0813186
:100C500091053CF4009709F438C1089709F040C1A8
:100C600065C08831910509F466C0809709F038C1E4
:100C70007FC08034910509F4A3C08134910544F408
:100C80008033910509F47FC0C89709F029C186C057
:100C90008035910509F486C08835910509F495C021
:100CA0008834910509F01CC19EC08839910509F46A
:100CB00004C189399105ECF48837910509F49BC08A
:100CC000893791054CF48836910509F494C0803732
:100CD000910509F005C18FC08838910509F4EDC070
:100CE0008039910509F48DC08038910509F0F8C06C
:100CF00088C0803B910509F4B2C0813B91054CF45A
:100D0000803A910509F491C0883A910509F0E8C04C
:100D1000A6C0803C910509F4D4C0883C910509F433
:100D2000D0C0883B910509F0DBC0B1C08091D602EC
:100D30008093BB00C0C09091DD028091DE029817C5
:100D400078F49091DD02E091DB02F091DC02E90F92
:100D5000F11D80818093BB009F5F9093DD02ABC04B
:100D600085ED8093BC008091BC0084FDFCCFB6C0B3
:100D700080E28093E60285ED8093BC008091BC0008
:100D800084FDFCCFABC080E38093E60285ED8093C9
:100D9000BC008091BC0084FDFCCFA0C088E38093A0
:100DA000E6028FC08091DD029091BB00E091DB02F2
:100DB000F091DC02E80FF11D90838F5F8093DD02DC
:100DC0009091DD028091DE0274C08091DD029091ED
:100DD000BB00E091DB02F091DC02E80FF11D908393
:100DE0008F5F8093DD0285ED8093BC008091BC0015
:100DF00084FDFCCF73C083E08093D5021092E5029E
:100E00005AC08091E502803208F057C08091E50217
:100E10009091BB00E091E302F091E402E80FF11D34
:100E200090838F5F8093E50246C08091E502803217
:100E300048F48091E502E091E302F091E402E80FCA
:100E4000F11D10826091E502E091D902F091DA0281
:100E50008091E3029091E40270E0099532C084E051
:100E60008093D5021092E1021092E202E091D70243
:100E7000F091D80209958091E202882341F481E043
:100E80008093E202E091DF02F091E0021082909103
:100E9000E102E091DF02F091E002E90FF11D8081B3
:100EA0008093BB009F5F9093E1029091E10280915B
:100EB000E202981710F485EC01C085E88093BC002D
:100EC0000FC085EC8093BC0009C01092E60285ED4E
:100ED0008093BC008091BC0084FDFCCF1092D502B1
:100EE000FF91EF91BF91AF919F918F917F916F9102
:100EF0005F914F913F912F910F900FBE0F901F90D8
:100F000018951092D502449A459AE9EBF0E0808159
:100F10008E7F808380818D7F808388E48093B8007A
:100F200085E48093BC0080E290E061E070E00E9484
:100F30000C018093DB029093DC0280E290E061E0A0
:100F400070E00E940C018093DF029093E00280E247
:100F500090E061E070E00E940C018093E3029093C6
:100F6000E4020895E0911703F09118039781892F07
:100F70008F5F8F70907F982B97838A3019F4907FC2
:100F8000905E97839781892F8295869587708630AA
:100F9000E9F49F7197839581392F3295369536956F
:100FA00033702681822F8370880F880F832B8F5F89
:100FB000382F3295330F330F307C9F73932B9583EB
:100FC0008F70869586952C7F282B26833581932FCD
:100FD00092959695969593702681822F8370880FAF
:100FE000880F892B8A3071F43F733583822F869561
:100FF000869586958F5F8370880F880F880F247E73
:10100000282B26833681832F869586958695837037
:10101000823041F52581922F929596959695937001
:10102000832F8370880F880F892B8430D9F42F7316
:101030002583347E36839381392F331F3327331F23
:101040002481822F8770880F832B8F5F382F3795ED
:10105000332737959F77932B93838F708695287FBF
:10106000282B24833381932F991F9927991F24813B
:10107000822F8770880F892B8A3029F43F7733833A
:10108000287F205F24839481892F82958F708A30F6
:1010900059F49F7094839581892F86958F5F837013
:1010A000880F997F982B95837581872F86958370FC
:1010B000833059F56481862F82958F70863029F5AB
:1010C0005381852F881F8827881F262F2770220F7E
:1010D000282B30E04181842F8695817090E0069620
:1010E0002817390791F4797F7583506853836870A6
:1010F0006483842F8695869586958F5F8F70880F81
:10110000880F880F4778482B41839181892F8695D6
:10111000869586958F708A3049F49778918382817D
:10112000982F9F5F9F70807F892B82839281892F68
:101130008F708A3011F4907F92830895FC016AE0E9
:1011400070E00E9439149B0174E0220F331F7A95DE
:10115000E1F7CF016AE070E00E943914280F391FCF
:10116000C9010895809154020E94D311892B59F42A
:101170000E94F4106093E7027093E8028093E90202
:101180009093EA0208950E94F4106093EB0270932A
:10119000EC028093ED029093EE0281E08093F702DF
:1011A0000895EF92FF920F931F93CF93DF93EC017B
:1011B000009769F480E38093A8028091510288230C
:1011C00009F447C08AEB93E060E071E00EC0813023
:1011D000910571F481E38093A802809151028823E4
:1011E000C1F18AEB93E062E071E00E94DC1331C050
:1011F0008FEFCF3FD807B9F48DE48093A802809198
:101200005102882331F08AEB93E064E071E00E94A0
:10121000DC138091F9029091FA0201969093FA0200
:101220008093F90214C08FEFCE3FD80771F488E5A0
:101230008093A80280915102882349F08AEB93E0C1
:1012400066E071E00E94DC1302C0D7FF02C0C0E07C
:10125000D0E0E090A602F090A702FE01FF0FEE0B97
:10126000FE2F00E410E00E191F099E014E2F5E2F85
:101270006E2F7E2F8E2F9E2F0E948D00E0911903DE
:10128000E22BE093190320911A03232B20931A03D6
:1012900020911B03242B20931B0320911C03252B3F
:1012A00020931C0320911D03262B20931D032091C6
:1012B0001E03272B20931E0320911F03282B20930E
:1012C0001F0380912003892B809320030894E11C45
:1012D000F11CF092A702E092A602DF91CF911F913C
:1012E0000F91FF90EF9008950F931F93DF93CF938B
:1012F000CDB7DEB7CF5FD0400FB6F894DEBF0FBEDC
:10130000CDBF60911703709118038DB79EB70C97EE
:101310000FB6F8949EBF0FBE8DBFEDB7FEB73196E6
:101320008E010F5F1F4FADB7BEB712961C930E9381
:10133000119788E091E093838283DB0116968C916C
:101340001697282F26952695269523705AE0259FD7
:101350009001112415969C911597929596959695C6
:1013600093708370880F880F892B820F8483158276
:1013700017962C911797822F829586958770859F57
:10138000C00111242F70280F2683178215962C91E7
:1013900015972695237084E6289F900111241496B2
:1013A0004C911497842F82958F70859FC0011124D2
:1013B000280F13968C911397881F8827881F4770D2
:1013C000440F482B240F2087118612962C911297D8
:1013D0002F70259F9001112411968C9186958695EA
:1013E00086958F70820F828713860E9438028DB790
:1013F0009EB70C960FB6F8949EBF0FBE8DBF8AEBBA
:1014000093E0B8010E94DC13C150DF4F0FB6F8948F
:10141000DEBF0FBECDBFCF91DF911F910F91089519
:10142000EF92FF920F931F93DF93CF93CDB7DEB769
:10143000CF5FD0400FB6F894DEBF0FBECDBF409156
:10144000130350E06091120370E0E0911103EE2E5F
:10145000FF248DB79EB70C970FB6F8949EBF0FBEB2
:101460008DBFADB7BEB711968E010F5F1F4FEDB7A1
:10147000FEB71283018385E391E013969C938E93CC
:101480001297CA0124E0959587952A95E1F79C016A
:10149000F3E0220F331FFA95E1F7880F991F280F09
:1014A000391F4F705070240F351F15963C932E93A3
:1014B0001497CB0124E0959587952A95E1F79C0137
:1014C000F3E0220F331FFA95E1F7880F991F280FD9
:1014D000391F6F707070260F371F17963C932E932D
:1014E0001697C70164E0959587956A95E1F79C0189
:1014F00053E0220F331F5A95E1F7880F991F280FE9
:10150000391FFFE0EF22FF242E0D3F1D19963C935B
:101510002E9318978091A802992787FD90951B9686
:101520009C938E931A970E9438028DB79EB70C96A3
:101530000FB6F8949EBF0FBE8DBFC801C150DF4FDC
:101540000FB6F894DEBF0FBECDBFCF91DF911F91D4
:101550000F91FF90EF9008951092F7022091EB0207
:101560003091EC028091E7029091E802281B390B40
:101570002436310508F4B9C081E02039380718F461
:1015800080E090E006C082E02C3B380728F481E040
:1015900090E00E94D108B6C02458334008F0A5C09E
:1015A0008091F802882309F498C08AE28093A80207
:1015B00080915102882331F08AEB93E060E571E07D
:1015C0000E94DC138091F9029091FA02069709F0CB
:1015D00060C08091A6029091A702CC9709F059C0F3
:1015E00080910E0390910F03892B09F052C08091D6
:1015F000E7029091E802A091E902B091EA0280939B
:10160000EF029093F002A093F102B093F202809166
:1016100019038093210380911A0380932203809100
:101620001B038093230380911C03809324038091E8
:101630001D038093250380911E03809326038091D0
:101640001F038093270380912003809328038091B8
:10165000520261E00E94861180910C0390910D036B
:10166000FC01EE0FFF1FE755FD4F1182108201961E
:1016700090930D0380930C030A9724F010920D03AE
:1016800010920C0380915102882331F00E9474095A
:1016900003C081E0809310031092FA021092F902C5
:1016A00081E090E09093A7028093A6021092F80246
:1016B00010920F0310920E031092190310921A0346
:1016C00010921B0310921C0310921D0310921E0314
:1016D00010921F031092200317C08FEF9FEF0E94FC
:1016E000D10881E08093F8020FC08EEF9FEF0E9437
:1016F000D10880910E0390910F03019690930F03F0
:1017000080930E031092F80280911003813039F01B
:101710008091A6029091A702CD970CF444C08091CD
:101720005102882331F08AEB93E062E571E00E9478
:10173000DC131092100380910C0390910D03FC01B7
:10174000EE0FFF1FE755FD4F21E030E0318320838E
:10175000019690930D0380930C030A9724F0109246
:101760000D0310920C031092FA021092F90281E01C
:1017700090E09093A7028093A6021092F802109234
:101780000F0310920E031092190310921A03109275
:101790001B0310921C0310921D0310921E03109243
:1017A0001F031092200308950F931F9304ED12E07E
:1017B000C80168E670E00E94D904C80160E070E0EA
:1017C0000E941F05C801609111030E94F704C8011F
:1017D000609112030E94F704C801609113030E94F4
:1017E000F704C801609114030E94F704C8016091D6
:1017F000BD020E94F704C8016091BE020E94F70476
:10180000C801609115030E94F704C8016091160396
:101810000E94F704C8010E9422051F910F910895AC
:10182000EF92FF920F931F93CF93DF930E94F410D8
:101830008B019C018091EF029091F002081B190B23
:10184000C80168EE73E00E942514E62EC80168EE18
:1018500073E00E942514855F914008F0E3940E9494
:10186000B207E09211030091170310911803E801E9
:101870009F81892F8295869587708295807F9F7042
:10188000890F809312038E81282F220F20739D8150
:1018900092959695969593708370880F880F892BF3
:1018A000280F20931303109214038D818695837063
:1018B00090E024E630E0829FA001839F500D929F2C
:1018C000500D11242C81822F82958F703AE0839FD6
:1018D000C0011124480F591F8B81881F8827881F3A
:1018E0002770220F282B420F511D89818695817008
:1018F00090E0FC01EE0FFF1FE259FD4FC0E0D0E089
:101900009C0105C021963496CE30D10539F08081F6
:10191000918184179507B4F32097F1F0FE01319778
:10192000EE0FFF1FE20FF31FEE0FFF1FE259FD4FF7
:1019300080819181FA01E81BF90BCF010E949E087A
:101940008093BD02CD30D10514F0C1E0D0E0CE01CE
:101950000E949E088093BE02E8019A819295907F32
:1019600089818695869586958F70980F909315033B
:101970000E94D40B4091130350E06091120370E079
:10198000E091BE02F0E0A091BD02B0E0E09015034E
:10199000FF242DB73EB72E5030400FB6F8943EBF0F
:1019A0000FBE2DBF0DB71EB70F5F1F4F8BEF92E01D
:1019B000CDB7DEB79A83898381E691E0E8019B8306
:1019C0008A83CA0124E0959587952A95E1F79C01C1
:1019D00003E0220F331F0A95E1F7880F991F280FA4
:1019E000391F4F705070240F351F3D832C83CB015E
:1019F00024E0959587952A95E1F79C0103E0220F55
:101A0000331F0A95E1F7880F991F280F391F6F7050
:101A10007070260F371F3F832E83CF0154E09595BA
:101A200087955A95E1F79C0143E0220F331F4A95B1
:101A3000E1F7880F991F280F391FEF70F0702E0FF4
:101A40003F1F39872887CD0114E0959587951A9512
:101A5000E1F79C01F3E0220F331FFA95E1F7880FBD
:101A6000991F280F391FAF70B0702A0F3B1F3B879B
:101A70002A87C70174E0959587957A95E1F79C01CF
:101A800063E0220F331F6A95E1F7880F991F280F33
:101A9000391FEFE0EE22FF242E0D3F1D3D872C87DE
:101AA0000E9438022DB73EB7225F3F4F0FB6F89421
:101AB0003EBF0FBE2DBFDF91CF911F910F91FF90C1
:101AC000EF9008950F931F9304ED12E0C80168E6AC
:101AD00070E00E94D904C80160E070E00E941F0518
:101AE000C8010E942205C80168E670E048E050E0A5
:101AF0000E944305C8010E94E30480931103C801BA
:101B00000E94E30480931203C8010E94E3048093BF
:101B10001303C8010E94E30480931403C8010E94C8
:101B2000E3048093BD02C8010E94E3048093BE02D7
:101B3000C8010E94E30480931503C8010E94E304D6
:101B4000809316031F910F910895DF93CF93CDB724
:101B5000DEB761970FB6F894DEBF0FBECDBF8091A0
:101B6000110390E09C01E4E035952795EA95E1F7B3
:101B7000A90173E0440F551F7A95E1F7220F331F37
:101B8000420F531F8F709070480F591F4A305105F4
:101B90002CF08091520260E00E9486110E94100A8F
:101BA000BC018AEB93E00E94FB134091110350E0CB
:101BB0009A01B4E035952795BA95E1F7C901A3E0FC
:101BC000880F991FAA95E1F7220F331F820F931FE9
:101BD0004F705070840F951F6AE070E00E943914B6
:101BE0006230710509F4BBC06330710544F46115BE
:101BF000710591F06130710509F06EC187C06430E4
:101C0000710509F405C1643071050CF4D8C0653064
:101C1000710509F061C140C12091BE0230E04091E0
:101C2000BD0250E06091150370E08DB79EB70A9732
:101C30000FB6F8949EBF0FBE8DBFADB7BEB711965D
:101C4000CE010196EDB7FEB7928381838FE791E0D5
:101C500013969C938E931297C901E4E0959587950E
:101C6000EA95E1F7FC01EE0FFF1FEE0FFF1FEE0FED
:101C7000FF1F880F991FE80FF91F2F703070E20FB8
:101C8000F31FEE0FFF1FEC5AFD4F808191811596D7
:101C90009C938E931497CA0124E0959587952A9575
:101CA000E1F79C01F3E0220F331FFA95E1F7880F6B
:101CB000991F280F391F4F705070240F351F17962A
:101CC0003C932E931697CB0124E0959587952A9502
:101CD000E1F79C01F3E0220F331FFA95E1F7880F3B
:101CE000991F280F391F6F707070260F371F1996B4
:101CF0003C932E9318970E9438028DB79EB70A9690
:101D00000FB6F8949EBF0FBE8DBFE6C0E9EAF2E0C1
:101D100020E030E081919191280F391F92E0ED3B56
:101D2000F907C1F700D000D000D0EDB7FEB731966B
:101D3000CE010196ADB7BEB712969C938E931197C4
:101D400080E991E0938382838AE090E0821B930B89
:101D500062E070E00E94391475836483B3C0E0913F
:101D60001703F0911803818181FD03C040EA51E01F
:101D700002C043EA51E0818180FD03C020EA31E0E6
:101D800002C023EA31E08DB79EB708970FB6F894EA
:101D90009EBF0FBE8DBFEDB7FEB73196CE01019647
:101DA000ADB7BEB712969C938E93119787EA91E0D8
:101DB00093838283558344833783268367C0E0916E
:101DC0001703F0911803E081E295E695E695E3703C
:101DD000E13069F0E13030F0E23071F0E33009F0E9
:101DE0007BC00FC0CE01019666EB71E00EC0CE0144
:101DF00001966EEB71E009C0CE0101966AEC71E0CC
:101E000004C0CE01019668ED71E00E94310264C009
:101E10004091170350911803DA0113968C9186951F
:101E200086958770823011F42DE205C0853011F05F
:101E30002FE301C02BE2EDB7FEB738970FB6F89449
:101E4000FEBF0FBEEDBF3196CE010196ADB7BEB756
:101E500012969C938E93119781EE91E093838283E7
:101E6000822F992787FD909595838483DA011296B6
:101E70009C91129792959695977013968C9181707C
:101E8000880F880F880F892B868317820E9438025B
:101E9000EDB7FEB738961BC000D000D000D0EDB72C
:101EA000FEB73196CE010196ADB7BEB712969C93A0
:101EB0008E9311978DEE91E0938382838BEF92E066
:101EC000958384830E943802EDB7FEB736960FB62D
:101ED000F894FEBF0FBEEDBF8AEB93E0BE016F5FCB
:101EE0007F4F0E94DC1361960FB6F894DEBF0FBEE1
:101EF000CDBFCF91DF9108958091F702813011F429
:101F00000E94AC0A0E94F4102091F3023091F40276
:101F10004091F5025091F602621B730B840B950BF6
:101F20006B3F71058105910520F10E94620D0E94B1
:101F3000F4106093F3027093F4028093F50290938F
:101F4000F6028091EF029091F002A091F102B0911F
:101F5000F2020097A105B10551F00E94100C1092F9
:101F6000EF021092F0021092F1021092F2020E941F
:101F7000A50D089580915102882341F08AEB93E0EA
:101F800040E855E260E070E00E945F1280915102EB
:101F9000882331F08AEB93E062EF71E00E94FB133B
:101FA00084ED92E00E9446058091520261E00E9419
:101FB00066118091520261E00E9486118AEB93E0E3
:101FC00069EF71E00E94FB138AEB93E06AE072E034
:101FD0000E94FB1368E873E180E090E00E94021128
:101FE0008091520260E00E9486118091540260E06C
:101FF0000E94661180E062EB78E041E050E00E94D0
:102000002F1010922103109222031092230310929A
:102010002403109225031092260310922703109296
:1020200028031092190310921A0310921B031092A6
:102030001C0310921D0310921E0310921F03109296
:10204000200381E293E0909318038093170308958F
:102050000E942C110E94BA0F0E947C0FFDCF82308B
:1020600000F5E82FF0E0EE0FFF1FE75DFC4F7183F6
:102070006083882319F08130A1F408C08091690041
:102080008C7F842B80936900E89A08958091690081
:10209000440F551F440F551F837F842B8093690085
:1020A000E99A08951F920F920FB60F9211242F9361
:1020B0003F934F935F936F937F938F939F93AF93D0
:1020C000BF93EF93FF938091290390912A03892B6B
:1020D00029F0E0912903F0912A030995FF91EF91EE
:1020E000BF91AF919F918F917F916F915F914F9130
:1020F0003F912F910F900FBE0F901F9018951F9238
:102100000F920FB60F9211242F933F934F935F932B
:102110006F937F938F939F93AF93BF93EF93FF93AF
:1021200080912B0390912C03892B29F0E0912B03B4
:10213000F0912C030995FF91EF91BF91AF919F9181
:102140008F917F916F915F914F913F912F910F9060
:102150000FBE0F901F9018951F920F920FB60F92FF
:1021600011242F933F938F939F93AF93BF938091AD
:10217000310390913203A0913303B0913403309135
:1021800035030196A11DB11D232F2D5F2D3720F0A2
:102190002D570196A11DB11D209335038093310366
:1021A00090933203A0933303B093340380912D03B3
:1021B00090912E03A0912F03B09130030196A11DA1
:1021C000B11D80932D0390932E03A0932F03B09302
:1021D0003003BF91AF919F918F913F912F910F90BD
:1021E0000FBE0F901F9018958FB7F8942091310370
:1021F0003091320340913303509134038FBFB901C2
:10220000CA010895EF92FF920F931F937B018C01F7
:102210008FB7F894409131035091320360913303AA
:10222000709134038FBF2FB7F89480913103909150
:102230003203A0913303B09134032FBF841B950B5D
:10224000A60BB70BE816F9060A071B0760F71F91E4
:102250000F91FF90EF900895789484B5826084BDCB
:1022600084B5816084BD85B5826085BD85B581609A
:1022700085BDEEE6F0E0808181608083E1E8F0E0FA
:10228000808182608083808181608083E0E8F0E0EB
:10229000808181608083E1EBF0E0808184608083D5
:1022A000E0EBF0E0808181608083EAE7F0E080810C
:1022B000846080838081826080838081816080836C
:1022C0008081806880831092C1000895282F30E0BB
:1022D000C90186569F4FFC0194912A573F4FF9013F
:1022E0008491882391F0E82FF0E0EE0FFF1FE8596A
:1022F000FF4FA591B491662329F48C919095892381
:102300008C9308958C91892B8C930895482F50E0DD
:10231000CA0182559F4FFC012491CA0186569F4FE6
:10232000FC0194914A575F4FFA0134913323D1F164
:10233000222331F1233021F4809180008F7705C072
:10234000243031F4809180008F7D8093800018C00C
:10235000213019F484B58F7704C0223021F484B57C
:102360008F7D84BD0DC0263021F48091B0008F7721
:1023700005C0273029F48091B0008F7D8093B00094
:10238000E32FF0E0EE0FFF1FEE58FF4FA591B49141
:10239000662329F48C91909589238C9308958C91D0
:1023A000892B8C930895682F70E0CB0182559F4F45
:1023B000FC012491CB0186569F4FFC0144916A5742
:1023C0007F4FFB019491992319F420E030E038C04D
:1023D000222331F1233021F4809180008F7705C0D2
:1023E000243031F4809180008F7D8093800018C06C
:1023F000213019F484B58F7704C0223021F484B5DC
:102400008F7D84BD0DC0263021F48091B0008F7780
:1024100005C0273029F48091B0008F7D8093B000F3
:10242000892F90E0880F991F84589F4FFC01A59138
:10243000B4918C9120E030E0842311F021E030E071
:10244000C90108951F920F920FB60F9211242F9376
:102450003F934F935F936F937F938F939F93AF932C
:10246000BF93EF93FF934091C600E091B603F091C4
:10247000B703CF01019660E870E00E9439149C0117
:102480008091B8039091B9032817390739F0EA5CB5
:10249000FC4F40833093B7032093B603FF91EF9135
:1024A000BF91AF919F918F917F916F915F914F916C
:1024B0003F912F910F900FBE0F901F9018955F9234
:1024C0006F927F928F929F92AF92BF92CF92DF9244
:1024D000EF92FF920F931F93CF93DF93EC013A019A
:1024E0004B01413482E458078FE0680780E07807A9
:1024F0000CF07FC060E874E88EE190E0A4019301E5
:102500000E946E142150304040405040CA01B90131
:1025100022E030E040E050E00E946E1459016A0170
:10252000A6019501209530954095509594E0220F95
:10253000331F441F551F9A95D1F760E074E284EF72
:1025400090E00E946E14CA01B9012FEF30E040E024
:1025500050E00E940614A40193010E946E14C90168
:1025600081509F4F181619061CF4522E5A9403C01E
:1025700055245394521A60E079E08DE390E0A40171
:1025800093010E946E142150304040405040CA01D7
:10259000B90122E030E040E050E00E946E14209546
:1025A00030954095509583E0220F331F441F551FEF
:1025B0008A95D1F760E074E284EF90E00E946E1497
:1025C000CA01B9012FEF30E040E050E00E9406144C
:1025D000A40193010E946E14C90181509F4F1816E7
:1025E00019061CF4822F815002C081E0821B8515E0
:1025F00000F5E885F98581E090E00A8802C0880F3F
:10260000991F0A94E2F7808360E079E08DE390E01F
:10261000A40193010E946E1421503040404050406C
:10262000CA01B90122E030E040E050E00E946E149F
:1026300004C0E885F98510829501EC81FD81308325
:10264000EE81FF812083EA85FB85208141E050E017
:10265000CA010E8402C0880F991F0A94E2F7282B42
:102660002083EA85FB852081CA010F8402C0880F80
:10267000991F0A94E2F7282B2083EA85FB85808145
:10268000088802C0440F551F0A94E2F7842B808308
:10269000DF91CF911F910F91FF90EF90DF90CF903E
:1026A000BF90AF909F908F907F906F905F900895B4
:1026B000FC01A085B18521898C9190E0022E02C099
:1026C000959587950A94E2F780FFF6CF0484F58507
:1026D000E02D6083089583EC92E09093BB03809398
:1026E000BA0386E393E09093BD038093BC0385EC2B
:1026F00090E09093BF038093BE0384EC90E09093AE
:10270000C1038093C00380EC90E09093C303809357
:10271000C20381EC90E09093C5038093C40386ECE0
:1027200090E09093C7038093C60384E08093C8032E
:1027300083E08093C90387E08093CA0385E0809398
:10274000CB0381E08093CC0308950F931F93CF9325
:10275000DF938C01EB0109C02196D801ED91FC912A
:102760000190F081E02DC801099568816623A1F7E9
:10277000DF91CF911F910F910895EF92FF920F93E8
:102780001F93CF93DF938C017B01EA010CC0D7012B
:102790006D917D01D801ED91FC910190F081E02DCA
:1027A000C80109952197209791F7DF91CF911F914B
:1027B0000F91FF90EF900895DC01ED91FC91028064
:1027C000F381E02D099508950F931F938C01DC018F
:1027D000ED91FC910190F081E02D6DE00995D8011B
:1027E000ED91FC910190F081E02DC8016AE009951E
:1027F0001F910F9108950F931F938C010E94DC137A
:10280000C8010E94E4131F910F910895629FD001A7
:10281000739FF001829FE00DF11D649FE00DF11D9B
:10282000929FF00D839FF00D749FF00D659FF00D4A
:102830009927729FB00DE11DF91F639FB00DE11D37
:10284000F91FBD01CF0111240895AA1BBB1B51E143
:1028500007C0AA1FBB1FA617B70710F0A61BB70B10
:10286000881F991F5A95A9F780959095BC01CD01B5
:10287000089597FB092E07260AD077FD04D0E5DFDF
:1028800006D000201AF4709561957F4F0895F6F7F1
:10289000909581959F4F0895A1E21A2EAA1BBB1B0C
:1028A000FD010DC0AA1FBB1FEE1FFF1FA217B3071C
:1028B000E407F50720F0A21BB30BE40BF50B661F32
:1028C000771F881F991F1A9469F7609570958095F6
:1028D00090959B01AC01BD01CF01089597FB092E96
:1028E00005260ED057FD04D0D7DF0AD0001C38F4DF
:1028F00050954095309521953F4F4F4F5F4F08952C
:10290000F6F790958095709561957F4F8F4F9F4F0B
:102910000895EE0FFF1F0590F491E02D09942F927A
:102920003F924F925F926F927F928F929F92AF925F
:10293000BF92CF92DF92EF92FF920F931F93CF93AC
:10294000DF93CDB7DEB7CA1BDB0B0FB6F894DEBF43
:102950000FBECDBF09942A88398848885F846E8469
:102960007D848C849B84AA84B984C884DF80EE80B3
:10297000FD800C811B81AA81B981CE0FD11D0FB6BC
:10298000F894DEBF0FBECDBFED010895F894FFCFE0
:10299000300031004D0058000A4672616D652044D8
:1029A00065636F6465643A2025302E32693A2530BC
:1029B0002E3269202025302E3369202032302530F8
:1029C0002E32690A0025302E32693A25302E3269BE
:1029D0003A25302E326920555443202020256300AB
:1029E0002A0020204672616D65204572726F720A5E
:1029F0000025302E32693A25302E32692025302EBE
:102A000032692F25302E32692F25302E326900256C
:102A1000732025302E326920323025302E32690065
:102A200057575642205369676E616C3A20256900FA
:102A30004E6F00596573004C593A20257320204C85
:102A4000533A202573004453543A204E6F004453A8
:102A5000543A20456E64696E67004453543A2053DB
:102A600074617274696E67004453543A20596573F7
:102A70000055543120256320302E2569005B2573D5
:102A80005D0052656164792E005757564220436CB1
:102A90006F636B207620312E3000506F7053636966
:102AA000204170722E2032303130004A616E004673
:102AB0006562004D617200417072004D6179004A9B
:102AC000756E004A756C0041756700536570004F64
:102AD0006374004E6F7600446563002000D10300EC
:102AE00000010D0002001B021F02230227022B021D
:102AF0002F02330237023B023F024302470200002B
:102B000000001F001F003B003C005A005B007800E3
:102B1000790097009800B500B600D400D500F30006
:102B2000F40011011201300131014E014F016D011C
:102B30006E016E016F010100200100010001000122
:102B4000000100010001000100010001000101007D
:0A2B50000000005813A513BD130088
:00000001FF
